:020000040800F2
:1000000000000120310C0008BD0B0008BF0B0008E8
:10001000C10B0008C30B0008C50B0008000000005E
:10002000000000000000000000000000113E000879
:10003000C70B000800000000A13E0008C90B000823
:10004000790C0008790C0008790C0008790C00087C
:10005000790C0008790C0008790C0008790C00086C
:10006000790C0008790C0008790C0008790C00085C
:10007000790C0008790C0008790C0008790C00084C
:10008000790C0008790C0008790C0008790C00083C
:10009000790C0008790C0008790C0008790C00082C
:1000A000790C0008790C0008790C0008790C00081C
:1000B000790C0008790C0008790C0008790C00080C
:1000C000790C0008790C0008790C0008790C0008FC
:1000D000790C0008790C0008790C0008E10B000885
:1000E000790C0008790C0008790C0008790C0008DC
:1000F000790C0008790C0008790C0008790C0008CC
:10010000790C0008790C0008790C0008790C0008BB
:10011000790C0008790C0008790C0008790C0008AB
:10012000790C0008790C0008790C0008790C00089B
:1001300000000000000000000000000000000000BF
:1001400000000000000000000000000000000000AF
:10015000000000000000000000000000000000009F
:10016000000000000000000000000000000000008F
:10017000000000000000000000000000000000007F
:10018000000000000000000000000000000000006F
:10019000000000000000000000000000000000005F
:1001A000000000000000000000000000000000004F
:1001B000000000000000000000000000000000003F
:1001C000000000000000000000000000000000002F
:1001D000000000000000000000000000000000001F
:0401E0005FF8E0F1F3
:1001F00010B5054C237833B9044B13B10448AFF361
:1002000000800123237010BD780000200000000052
:10021000E44D000808B5034B1BB103490348AFF395
:10022000008008BD000000007C000020E44D0008B4
:10023000412307B50C4C8DF807304FF6FF730122B0
:1002400020460DF1070101F0B1FE9DF8073041F2A3
:100250008830592B8EBF41230133DBB28DF8073034
:1002600002F020F9E9E700BFFC190020BFB5484FB4
:10027000484D494E01223146484802F062F8B046E6
:100280000446002838D133780D2B35D1B2464FF4CF
:100290008061434800F05FFFDFF8089134703C70E4
:1002A0003E4C01225146204602F04BF898F80020BF
:1002B00038B90D2A07D03B7809F8032001333B7089
:1002C000EFE70D2AEDD100244FF4806134483470FB
:1002D00000F041FF334B1A78612A04D15B78612B1F
:1002E00011D0622B36D02F4901A804F067F92821DC
:1002F0000A2001AA04F05AF803F0BEFF4FF47A7006
:1003000002F0D0F8B5E701220421284600F01EFFD4
:1003100022460821284600F019FF234E0122202101
:10032000284600F013FF22461021284600F00EFF59
:100330002146306802F016F91C4B1A681C4B1B88CA
:1003400003F5967353631B4B1B889363306802F06D
:100350003BF9C8E701220421284600F0F7FE2246B7
:100360000821284600F0F2FE0F4E012220212846E7
:1003700000F0ECFE22461021284600F0E7FE214660
:10038000306802F0EFF8094B1B685C639C63DDE7A3
:10039000950000200008014094000020FC19002076
:1003A00000180140D81A0020A8190020B019002018
:1003B000020000200000002070B50021134801F069
:1003C000F1FC0421114801F0EDFC0C21104801F072
:1003D000E9FC5A260E4C4B25236841F288301E64F6
:1003E00002F060F8236841F288301D6402F05AF888
:1003F0003C22236841F288301A6402F053F82368E3
:1004000041F288301D6402F04DF8E4E7B019002095
:10041000901A00202DE9F04F364F374C8BB03C211D
:10042000384601F0CEF93C21204601F0CAF93B687C
:10043000A0465D6A2368DFF8D0A0D3F8249000F0CE
:100440005FFC064600F05CFC801BB0F57A7F44D967
:100450003B682A495B6A68469D42A5BFC5F57F4552
:10046000FF35A3EB050B05EB030B5A4604F086F8AA
:100470006A4614210A2003F099FF3A682049556A18
:10048000D8F8002005A8546AA145DBBFC4F57F4415
:10049000FF34A9EB04044C44224604F06FF81E21FB
:1004A0000A2005AA03F082FFD8F800200021DAF81C
:1004B0000000D2F8249002F055F84FF6FF729345F1
:1004C000DAF8000001D0944202D102F07DF8B9E7D9
:1004D00002F07AF800F014FC06464FF47A7001F04E
:1004E000E1FF084B1B681A6C4B2AABD04B221A64F5
:1004F000A8E700BFEC1A0020481A0020FC4D0008B5
:10050000094E0008901A0020A819002000B591B0EB
:100510002422002107A804F029F81422002101A8B0
:1005200004F024F8022301210693102306A8CDE944
:100530000A1300F025FE014608B172B6FEE70F234C
:10054000CDE90300CDE90130059001A800F0EEFFF0
:1005500008B172B6FEE711B05DF804FBF0B59BB0D0
:1005600000F0B0FBFFF7D2FF1022002111A803F02A
:10057000FDFFA14B4FF4BC619A69A04842F04002D4
:100580009A619A69012602F040020092009A9A69E3
:10059000002542F004029A619A69032702F00402DE
:1005A0000192019A9A69964C42F010029A619A69F6
:1005B00002F010020292029A9A6942F008029A61CD
:1005C0009B69002203F008030393039B00F0BEFD28
:1005D00000223C218B4800F0B9FD4FF4BC63CDE90B
:1005E00011360223854811A9CDE9135300F0C4FC4C
:1005F0003C23844811A9CDE911361395149700F0D6
:10060000BBFC1022294606A803F0B0FF1C22294695
:100610000AA8CDE9045503F0A9FF2022294611A814
:1006200003F0A4FF784B2046C4E9003541F61F4390
:10063000C4E90555C4E90335A56001F069F908B1BD
:1006400072B6FEE74FF48053204606A9069301F0E8
:10065000A8FA08B172B6FEE7204601F085F908B1A4
:1006600072B6FEE7CDE9040004A9204601F09CFB28
:10067000024608B172B6FEE76023CDE90C00CDE971
:100680000A30CDE90E0010900AA9204601F024FAA4
:1006900008B172B6FEE7042220460AA901F01CFA4E
:1006A00008B172B6FEE74FF40053CDE91100CDE971
:1006B00013001590189011A92046169301F0AAFB7B
:1006C00008B172B6FEE74FF08043504CCDE90A0006
:1006D000C4E900304FF6FF73C4E903300A23CDE9C3
:1006E0001170CDE91360CDE91530CDE91760A06038
:1006F000A06111A92046199301F062F908B172B600
:10070000FEE7CDE90A000AA9204601F04DFB0446A8
:1007100008B172B6FEE70146102206A803F026FFD4
:100720001C2221460AA8CDE9044403F01FFF2146FC
:10073000202211A803F01AFFA02335483549846010
:10074000C0E900134FF47A73C0E903348023446195
:10075000836101F0DDF808B172B6FEE74FF4805313
:100760002B4806A9069301F01CFA08B172B6FEE701
:10077000274801F0F9F808B172B6FEE7CDE90400A8
:1007800004A9234801F010FB08B172B6FEE760230C
:10079000CDE90E00CDE90A300C9010900C221C48D7
:1007A0000AA901F099F908B172B6FEE74FF40053B7
:1007B000CDE91100CDE913001590189011A9144846
:1007C000169301F027FB044608B172B6FEE7104805
:1007D00000F076F94FF4E1330F48104AC0E90244C3
:1007E000C0E900230C230461C0E90534C46101F0B1
:1007F000AFFBA8B172B6FEE700100240001801403E
:10080000B01900200008014000340140EC1A00201B
:10081000901A0020002C0140FC19002000480040E4
:10082000294C2A4B0A22C4E900304FF6FF73C4E971
:1008300003300323CDE911300123CDE90A00CDE9CE
:100840001330CDE91520CDE91730A060A0611990D3
:1008500011A9204601F0B4F808B172B6FEE7CDE95F
:100860000A000AA9204601F09FFA044608B172B6B0
:10087000FEE703F0BBFD01F07DFD154801F02EFE03
:10088000144B21461860144A144801F0AFFD144B74
:1008900021461860134A144801F0A8FD134B214665
:1008A0001860134A134801F0A1FD134B2146134A67
:1008B0001860134801F09AFD124B186001F076FDA4
:1008C00020461BB0F0BD00BF481A002000040040C5
:1008D000944E0008A8190020C84E000831020008F4
:1008E000AC190020A44E00086D020008F819002081
:1008F000704E0008B9030008401A00204C4E000852
:1009000015040008441A002070470000114B07B579
:100910009A690F2142F001029A619A696FF0010011
:1009200002F001020092009ADA6942F08052DA6124
:10093000DB69002203F080530193019B00F00AFA67
:10094000054A536823F0E06343F08063536003B0CB
:100950005DF804FB0010024000000140102210B5B9
:10096000044688B00DEB0200002103F0FFFD236870
:10097000174A93420BD1174B9A6942F400629A616D
:100980009B6903F400630193019B08B010BD124AF8
:100990009342FAD10F4B11489A6904A942F40052CC
:1009A0009A619A6902F400520292029A9A6942F09C
:1009B00010029A619B69C02203F010030393039B0A
:1009C0000223CDE90423079300F0D6FADDE700BF48
:1009D000002C014000100240003401400010014092
:1009E00010B504468AB01022002106A803F0BEFD0F
:1009F0002368B3F1804F39D103F50433DA69002459
:100A000042F00102DA61DA69284802F0010201923B
:100A1000019A9A6906A942F004029A619A6902F061
:100A200004020292029A9A6942F008029A619B6952
:100A3000089403F008030393039B4FF40043CDE9AC
:100A4000063400F099FA0823194806A9CDE90634BE
:100A5000089400F091FA174A536823F4407343F066
:100A6000E06343F4807353600AB010BD124A9342AE
:100A7000FAD1124B0D48DA6906A942F00202DA6196
:100A8000DA6902F002020492049A9A6942F00402BE
:100A90009A619B69C02203F004030593059B002320
:100AA000CDE90623089300F067FADDE7000801406E
:100AB000000C014000000140000400400010024012
:100AC00010B5044686B01022002102A803F04EFDA6
:100AD0002268104B9A421BD103F564439A690E4871
:100AE00042F040029A619B694FF4804203F0400358
:100AF0000193019B022302A9CDE90223059300F093
:100B00003BFA064A536843F0E06343F0C003536086
:100B100006B010BD002C014000180140000001404B
:100B200010B5044686B01022002102A803F01EFD75
:100B300022681F4B9A4239D103F5E433DA691D4824
:100B400042F48022DA61DA6902A902F4802200927A
:100B5000009A9A69002442F010029A619B694FF44E
:100B6000806203F010030193019B0223CDE902236D
:100B70000323059300F000FA4FF400630D4802A927
:100B8000CDE90234049400F0F7F90B4A27205368AA
:100B9000052123F0300343F0E06343F0100353607A
:100BA000224600F0D7F8272000F006F906B010BD65
:100BB000004800400010014000000140FEE7FEE751
:100BC000FEE7FEE7FEE7704708B500F08DF802F09B
:100BD00005FE012803D0BDE8084003F083B908BD35
:100BE000014801F095BA00BFFC1900200B4B0246EA
:100BF000196810B509B90A491960186809490A4CF9
:100C00000244091B8A4206D903F078FC0C230360D6
:100C10004FF0FF3010BD1A60FCE700BF98000020C5
:100C2000881F002000000120000400007047000021
:100C30000C480D490D4A002302E0D458C450043337
:100C4000C4188C42F9D30A4A0A4C002301E013600D
:100C50000432A242FBD3FFF7E9FF03F055FCFFF794
:100C60007DFC70470000002078000020C859000873
:100C700078000020881F0020FEE7000038B50E4BEA
:100C8000054618784FF47A73B3FBF0F30B4A1068FB
:100C9000B0FBF3F000F09EF8044658B90F2D09D8C8
:100CA000024629464FF0FF3000F054F82046044B2E
:100CB0001D6038BD0120FCE7080000200400002072
:100CC0000C000020074A08B51368032043F0100306
:100CD000136000F02DF80F20FFF7D0FFFFF716FE8E
:100CE000002008BD00200240034A044B11681B7815
:100CF0000B441360704700BF341B00200800002025
:100D0000014B1868704700BF341B002038B50446FB
:100D1000FFF7F6FF0546631C1EBF044B1B78E41863
:100D2000FFF7EEFF431BA342FAD338BD08000020B3
:100D300007490302CA6803F4E06322F4E062120484
:100D4000120C134343F0BF6343F40033CB6070478E
:100D500000ED00E0164B30B5DC68C4F30224C4F1AA
:100D60000703251D042B28BF0423062D4FF0FF3554
:100D700098BF002405FA03F388BF033C21EA03036C
:100D8000A34005FA04F422EA0402002843EA02031D
:100D9000ACBF00F16040074A4FEA0313DBB2ABBFC0
:100DA00000F5614000F00F0080F80033135430BDAF
:100DB00000ED00E014ED00E0002808DB012342090B
:100DC00000F01F0003FA00F0014B43F822007047C7
:100DD00000E100E00138B0F1807F0AD2F021064B3B
:100DE000064A586082F823100020072298601A6093
:100DF00070470120704700BF10E000E000ED00E008
:100E000090F82130022B06D004238363002380F85E
:100E100020300120704703681A6822F00E021A6021
:100E20001A6822F001021A600123D0E90F218B40D9
:100E300053604FF4807303840020704708B590F826
:100E40002130022B03D004238363012008BD0368F3
:100E500043491A6822F00E021A601A6822F0010251
:100E60001A60404A934241D98B4238D014318B42A8
:100E700037D014318B4236D014318B4223D0143109
:100E80008B4223D014318B4223D0934224D002F5DD
:100E90006272934223D01432934222D0143293428E
:100EA00021D01432934214BF4FF480334FF4805357
:100EB0002D4A53604FF480730384436B002B4DD055
:100EC00098470020C2E74FF48053F1E74FF4803396
:100ED000EEE74FF48013EBE74FF08073E8E7012370
:100EE000E6E71023E4E74FF48073E1E78B422ED06E
:100EF0001E498B422DD014318B422CD014318B42A1
:100F000019D014318B4219D014318B4219D093422D
:100F10001AD0174A93421AD01432934219D014327D
:100F2000934218D01432934214BF4FF480334FF4DD
:100F30008053104ABDE74FF48053FAE74FF48033F3
:100F4000F7E74FF48013F4E74FF08073F1E70123E4
:100F5000EFE71023EDE74FF48073EAE7184675E7F3
:100F60000800024080000240000402401C000240D1
:100F700008040240000002402DE9F74F0022164607
:100F80006B4F6C4BDFF8B4C1DFF8B4E10C6834FA96
:100F900006F502D103B0BDE8F08F4FF0010808FA62
:100FA00006F804EA080538EA040440F082804C6838
:100FB000032C07D8013C022C00F28D80DFE804F0FE
:100FC0009EA3A900122C00F0A18074D8112C00F06F
:100FD0009780FF2D98BF82464FF00F0988BF00F120
:100FE000040A4FEA8604DAF8008088BF203C09FA38
:100FF00004FB28EA0B0802FA04F448EA0404CAF8DD
:101000000040D1F804A01AF0805F52D0BC6926F0ED
:10101000030844F00104BC61BC6908F1804804F095
:101020000104019408F5803806F0030B019C4FEA97
:101030008B0BD8F8084009FA0BF924EA09093E4C51
:10104000A0426AD004F58064A04268D004F58064B0
:10105000A04266D004F58064A04264D004F58064A8
:10106000A04262D060450CBF0524062404FA0BF4AC
:1010700044EA0904C8F808401C681AF4803F14BF09
:101080002C43AC431C605C681AF4003F14BF2C4333
:10109000AC435C609C681AF4801F14BF2C43AC43C3
:1010A0009C60DC681AF4001F14BF254324EA050580
:1010B000DD6001366AE774450DD018D8DFF88490FA
:1010C0004C4508D009F570294C4504D0A9F5801984
:1010D0004C457FF47EAF8A68EAB1012A08BFC0F8A8
:1010E00010804FF0080218BFC0F8148071E7DFF8D5
:1010F00058904C45EFD009F58039E9E7CA6868E7B0
:10110000CA68043265E7CA68083262E7CA680C3206
:101110005FE700225DE704225BE70024A6E70124E5
:10112000A4E70224A2E70324A0E704249EE700BF6B
:10113000001002400004014000080140001C014072
:101140000000221000001210000031100AB10161ED
:1011500070470904FBE7C36801EA030221EA0301BF
:1011600041EA0241016170470122014B1A60704758
:1011700020000E420022014B1A60704720000E42F0
:101180002DE9F341054638B30368DB0710D42B681B
:101190009F075ED42B68190700F195802B685A07CA
:1011A00000F1BF80E869002840F02C81002029E090
:1011B0008F4C636803F00C03042B07D0636803F0C3
:1011C0000C03082B0AD16368DE0307D523689C0350
:1011D000DDD56B68002BDAD1012013E06B68B3F525
:1011E000803F12D1236843F480332360FFF788FDEA
:1011F000064623689803CAD4FFF782FD801B642843
:10120000F7D9032002B0BDE8F0819BB9236823F42D
:1012100080332360236823F480232360FFF770FD6D
:10122000064623689903B2D5FFF76AFD801B642840
:10123000F7D9E6E7B3F5A02F236803D143F4802361
:101240002360CFE723F480332360236823F48023D3
:10125000CBE7674C636813F00C0F07D0636803F0AB
:101260000C03082B10D16368DA030DD423689B07A5
:1012700002D52B69012BAFD123686A6923F0F803EB
:1012800043EAC203236085E72A695A4B6AB1012207
:101290001A60FFF735FD064623689F07ECD4FFF779
:1012A0002FFD801B0228F7D9ABE71A60FFF728FD56
:1012B0000646236898077FF56DAFFFF721FD801B79
:1012C0000228F6D99DE7AA69494E4B4BDAB10122B3
:1012D0001A60FFF715FD0446736A9B070DD54FF49E
:1012E000FA52464B1B68B3FBF2F3019300BF019B1C
:1012F0005A1E0192002BF9D150E7FFF701FD001BA8
:101300000228E9D97DE71A60FFF7FAFC0446736A00
:101310009F077FF543AFFFF7F3FC001B0228F6D9C8
:101320006FE7334CE369D80024D40127E36943F025
:101330008053E361E36903F080530093009B304ED8
:101340003368D90518D5EB68012B26D1236A43F001
:1013500001032362FFF7D4FC41F288380646236A72
:101360009B073FD5002F3FF41DAFE36923F0805367
:10137000E36117E70027E2E7336843F480733360E3
:10138000FFF7BEFC80463368DA05DCD4FFF7B8FC13
:10139000A0EB08006428F6D933E7ABB9236A41F221
:1013A000883823F001032362236A23F004032362B5
:1013B000FFF7A6FC0646236A9807D3D5FFF7A0FCE3
:1013C000801B4045F7D91CE7052B236A03D143F066
:1013D00004032362BAE723F001032362236A23F0A4
:1013E0000403B6E7FFF78CFC801B4045B7D908E73C
:1013F00000100240000042428004424204000020EB
:10140000007000402A4B5A681C4602F00C02082A61
:101410003DD00023274E022833602BD1FFF770FC0C
:101420000746236899011FD42B6AB3F5803F05D185
:101430006268A96822F400320A436260696A6268DD
:101440000B4322F474121343636001233360FFF7EC
:1014500057FC054623689A013FF5A8AEFFF750FCFC
:10146000401B0228F6D9CCE6FFF74AFCC01B022835
:10147000D7D9C6E6FFF744FC054623689B017FF5F4
:1014800095AEFFF73DFC401B0228F6D9B9E60128CE
:101490003FF4B8AE5B682A6A03F4803191427FF46E
:1014A0009BAE6A6A03F4701393423FF47FAE93E6F7
:1014B000001002406000424230B5184B87B002ACC9
:1014C00003F11005224618685968083303C2AB427D
:1014D0001446F7D140F201231149ADF804304B68AE
:1014E00003F00C02082A17D1C3F3834206A8024472
:1014F000DB0312F8102C0CD54B680A48C3F34043A9
:10150000504306AA134413F8143CB0FBF3F007B0A1
:1015100030BD05485043FAE70248F8E7044F000899
:101520000010024000127A0000093D002DE9F04150
:101530000D46044610B90120BDE8F081444A136805
:1015400003F007038B4228D321688E0730D4CA07E3
:1015500043D43F4A136803F00703AB4265D82268BF
:101560003C4D12F0040F6CD1130706D56B6822694D
:1015700023F4605343EAC2036B60FFF79DFF6B687F
:10158000354AC3F30313D35CD840344B1860344B53
:101590001868FFF773FB0020CEE7136823F00703FA
:1015A0000B431360136803F007038B42C3D1CBE7EF
:1015B000284B11F0040F1EBF5A6842F4E0625A60D3
:1015C000080742BF5A6842F460525A605A68A068DD
:1015D00022F0F00202435A60B9E762681D4E012A08
:1015E00033681AD113F4003FA5D0736841F28838EC
:1015F00023F0030313437360FFF782FB074673680E
:10160000626803F00C03B3EB820FA2D0FFF778FB04
:10161000C01B4045F3D903208EE7022A02D113F004
:10162000007FE1E713F0020FDEE7136823F0070302
:101630002B431360136803F00703AB427FF47BAFC7
:101640008DE76B68E16823F4E0630B436B608BE725
:101650000020024000100240EC4E00080400002070
:101660000C000020044B054A5B68C3F30223D35CE3
:10167000034A1068D840704700100240FC4E000832
:1016800004000020044B054A5B68C3F3C223D35C0B
:10169000034A1068D840704700100240FC4E000812
:1016A00004000020036A70B523F001030362036A9B
:1016B000446882690D6822F073022A438D6823F022
:1016C00002032B430E4DA84202D00E4EB04210D161
:1016D000CE6823F008033343A84223F0040302D06A
:1016E000084DA84205D1D1E9055624F4407435438C
:1016F0002C43446082614A684263036270BD00BF4C
:10170000002C014000340140036A70B523F480735B
:101710000362036A4468C2690D6822F073022A43B7
:101720008D6823F4007343EA0523114DA84203D0CA
:1017300005F50065A84214D1CD6823F4006343EA9F
:1017400005230B4D23F48063A84203D005F5006503
:10175000A84206D1D1E9055624F44054354344EA61
:1017600005144460C2614A68C263036270BD00BF71
:10177000002C0140036A30B523F480530362036AEE
:101780004468C2690D6822F4E64242EA05228D6887
:1017900023F4005343EA0533084DA84203D005F56E
:1017A0000065A84204D14D6924F4804444EA8514BC
:1017B0004460C2614A680264036230BD002C01408B
:1017C0007047034630B590F83E2090F83F0093F8FC
:1017D000425093F84340D2B2C0B2EDB2E4B2C1B9C4
:1017E000012A45D1012D45D1022283F83E2083F8FC
:1017F00042201A68116A21F001011162116A41F058
:101800000101002011621A68136843F0010313609C
:1018100030BD042911D101282AD1012CF8D102228E
:1018200083F83F2083F843201A68116A21F01001E1
:101830001162116A41F01001E3E7012A18D1012871
:1018400018D1012DE4D1012CE2D1022283F83E20EF
:1018500083F83F2083F8422083F843201A68116AF6
:1018600021F001011162116A41F001011162DCE70E
:101870000120CDE71046CBE7244A0368904212D0FE
:1018800002F5006290420ED0B0F1804F0BD0A2F56D
:101890009832904207D002F58062904203D002F560
:1018A000806290421DD14A6823F070031343174AA7
:1018B000904212D002F5006290420ED0B0F1804FFB
:1018C0000BD0A2F59832904207D002F58062904288
:1018D00003D002F58062904203D1CA6823F44073BA
:1018E00013434A6923F08003134303608B68C36288
:1018F0000B688362054B984203D003F5006398425E
:1019000001D10B690363012343617047002C01403F
:1019100010B5044630B390F83D3003F0FF021BB918
:1019200080F83C20FFF71AF80223206884F83D3045
:10193000211DFFF7A1FF0123002084F8463084F821
:101940003E3084F83F3084F8403084F8413084F8E9
:10195000423084F8433084F8443084F8453084F8C9
:101960003D3010BD0120FCE710B5044630B390F8BF
:101970003D3003F0FF021BB980F83C20FFF720FF49
:101980000223206884F83D30211DFFF775FF0123F5
:10199000002084F8463084F83E3084F83F3084F8E4
:1019A000403084F8413084F8423084F8433084F881
:1019B000443084F8453084F83D3010BD0120FCE708
:1019C000F8B50D46044600284DD090F83D3003F0A0
:1019D000FF021BB980F83C20FFF702F802232146E2
:1019E00084F83D3051F8040B836823F4804323F0DE
:1019F00007038360FFF740FF20682B6886688269D1
:101A0000A9681E43AB6922F4407222F0030241EA46
:101A10000323134323F47C422B69E9691B0143EA46
:101A20000123E968076A0B43296A22F0FC0243EAB2
:101A300001331343696927F022026F68866047EA21
:101A400001178361174301230762002084F84630A1
:101A500084F83E3084F83F3084F8423084F84330D4
:101A600084F83D30F8BD0120FCE70000036A70B542
:101A700023F010030362036A446882690D6822F44C
:101A8000E64242EA05228D6823F0200343EA05136B
:101A9000104DA84203D005F50065A84214D1CD68C9
:101AA00023F0800343EA05130A4D23F04003A842C4
:101AB00003D005F50065A84206D1D1E9055624F406
:101AC0004064354344EA8504446082614A68826325
:101AD000036270BD002C014038B590F83C300446DC
:101AE000012B52D00123082A80F83C303CD006D884
:101AF000C2B1042A27D0002084F83C0038BD0C2A4B
:101B0000F9D10068FFF736FE23680969DA6942F403
:101B10000062DA61DA6922F48062DA61DA6942EA43
:101B2000012230E00068FFF7BDFD236809699A696A
:101B300042F008029A619A6922F004029A619A6955
:101B40000A439A61D7E70068FFF790FF23680969A5
:101B50009A6942F400629A619A6922F480629A61F9
:101B60009A6942EA0122ECE70068FFF7CDFD23689D
:101B70000969DA6942F00802DA61DA6922F00402DE
:101B8000DA61DA690A43DA61B5E70220B6E710B52F
:101B900084680A4324F47F4442EA03222243826099
:101BA00010BD70B590F83C300446012B4FF0020098
:101BB00027D0012384F83D00206884F83C308368F6
:101BC00023F47F4323F0770383600B68602B4DD0B1
:101BD00032D8402B62D015D8202B03D009D833F04F
:101BE000100208D1826822F07002134343F0070309
:101BF00020E0302BF6D00123002084F83D3084F81B
:101C00003C0070BD502BF6D14A68CE68016A056A67
:101C100021F00A0125F00105056283690A4323F0DA
:101C2000F00343EA061383610262836823F07003C2
:101C300043F057038360DEE7702B0CD0B3F5005FF1
:101C4000D9D1CB68D1E90121FFF7A1FF22689368C0
:101C500043F4804308E0CB68D1E90121FFF797FF07
:101C60002268936843F077039360C4E74D68CE68B9
:101C7000016A21F0100101628269036A22F4704254
:101C800023F0A00343EA051342EA063282610362AD
:101C9000836823F0700343F06703CBE74A68CE689C
:101CA000016A056A21F00A0125F0010505628369D0
:101CB0000A4323F0F00343EA061383610262836858
:101CC00023F0700343F04703B4E710B50124036A1F
:101CD00001F01F018C4023EA04030362036A8A4077
:101CE0001A43026210BD000010B5044629B990F8ED
:101CF0003E30012B1DD0012032E0042907D190F89D
:101D00003F30012BF7D1022380F83F3014E008293F
:101D100007D190F84030012BEDD1022380F84030FC
:101D20000AE090F84130012BE5D1022380F84130E0
:101D300002E0022380F83E3001222068FFF7C5FF51
:101D40002368154A93420CD014498B4209D0B3F151
:101D5000804F10D19A6802F00702062A16D100209F
:101D600010BD596C934241F400415964F2D00B4AC2
:101D70009342EFD0EBE70A4A9342EBD002F5806240
:101D80009342E7D002F580629342E3D01A6842F0B2
:101D900001021A60E3E700BF002C0140003401405B
:101DA00000040040FFF7A0BF30B590F83C30024679
:101DB000012B4FF002002AD0136882F83D005C68C6
:101DC0000D6824F070042C4398685C60104CA342AA
:101DD00012D004F50064A3420ED0B3F1804F0BD0B3
:101DE000A4F59834A34207D004F58064A34203D03D
:101DF00004F58064A34204D1496820F080000143C7
:101E000099600123002082F83D3082F83C0030BD0B
:101E1000002C014090F83C30012B1FD0CB688A6821
:101E200023F4407313434A6823F4806313430A681E
:101E300023F4006313430A6923F4805313434A696C
:101E400023F400531343CA6923F480431343026805
:101E50005364002380F83C301846704702207047D6
:101E60000368DA6822F49072DA605A6922F001029B
:101E70005A61026B012A02BFDA6822F01002DA60AE
:101E8000202380F83E3000230363704710B50446DA
:101E90000368C1681A6922F440520A431A618268D1
:101EA0000069D9680243606921F4B05121F00C0146
:101EB00002430A43DA605A69A16922F440720A4374
:101EC0005A610E4A934215D1FFF7DCFB19234343B5
:101ED000626820689200B3FBF2F36422B3FBF2F174
:101EE00002FB11331B013233B3FBF2F303EB01139B
:101EF000836010BDFFF7B6FBE8E700BF0038014084
:101F0000F8B504460E4617461D462268136836EAA1
:101F1000030301D1002014E06B1CF7D095B92368AE
:101F20000320DA6822F4D072DA605A6922F00102E2
:101F30005A61202384F83D3084F83E30002384F831
:101F40003C30F8BDFEF7DCFEC01B8542DDD2E6E783
:101F500010B5044640B390F83D3003F0FF021BB9C2
:101F600080F83C20FEF7DCFD2423226884F83D3015
:101F7000D368204623F40053D360FFF787FF23681C
:101F800000201A6922F490421A615A6922F02A024A
:101F90005A61DA6842F40052DA602023206484F83F
:101FA0003D3084F83E3010BD0120FCE72DE9F843B8
:101FB000994690F83D300446202B0E46174648D1EE
:101FC000002944D0002A42D090F83C30012B40D068
:101FD0000123002580F83C302123056480F83D3042
:101FE000FEF78EFEA3688046B3F5805FA784E78482
:101FF00003D123690BB935461E46002384F83C30D3
:10200000E38C9BB253B94B46424640212046FFF732
:1020100077FF50B9202384F83D3007E04B46424615
:1020200080212046FFF76CFF10B10320BDE8F88344
:1020300022684EB935F8023BC3F308035360E18CC4
:10204000013989B2E184DBE716F8013BF6E70120AC
:10205000ECE70220EAE77047704708B50023406AC2
:10206000C385C384FFF7F8FF08BD704713B590F828
:102070003E30222B49D18168836AB1F5805F0268C6
:1020800033D10169002933D15268C2F3080223F821
:10209000022BC48D8362013CA4B2C4851CBB0368BF
:1020A000DA6822F02002DA60DA6822F48072DA60FC
:1020B0005A6922F001025A61202280F83E20026B08
:1020C000012A1FD10463DA6822F01002DA601A686C
:1020D000D20605D501941A6801925B680193019BB1
:1020E000818DFFF7C2FF002010E039B9016929B9DD
:1020F0005268D2B21A70836A0133CAE7526802F09A
:102100007F02F7E7FEF700FCEDE7022002B010BD0A
:10211000036837B51A68044612F00F0FD9685D6975
:1021200008D195065FD58D065DD503B0BDE830407A
:10213000FFF79CBF05F0010001F49075054352D0F4
:10214000D50705D5CB0542BF236C43F001032364BB
:10215000550704D518B1236C43F002032364930799
:1021600004D518B1236C43F004032364150707D585
:1021700001F0200303431EBF236C43F008032364D4
:10218000236C53B3920604D58B0602D52046FFF785
:102190006DFF236820465B69256C03F0400305F062
:1021A00008051D431BD0FFF75BFE23685A695506DF
:1021B00010D55A69A06B22F040025A6150B1534BBE
:1021C0004363FEF73BFE40B1A06B436B03B0BDE839
:1021D000304018472046FFF73FFF03B030BDFFF700
:1021E0003BFF2564F9E7206B012855D1D00653D574
:1021F000CD0651D5002101911A6801925A680192C9
:10220000019A5A6912F040022AD0A06B0268526803
:1022100092B2002AE1D0A58D9542DED9E28582698D
:10222000202A15D0DA6822F48072DA605A6922F026
:1022300001025A615A6922F040025A61202284F850
:102240003E202163DA6822F01002DA60FEF7D8FD42
:10225000E38DA18DC91A89B22046FFF706FFBCE7BE
:10226000E18D88B2E18D89B20029B6D0A18D091A1D
:1022700089B20029B1D0D86820F49070D86058692C
:1022800020F001005861202084F83E002263DA68C3
:1022900022F01002DA60DFE7100626D50D0624D5FD
:1022A00094F83D20212A98D1A168226AB1F5805F77
:1022B00016D12169A1B932F8021BC1F30801596096
:1022C0002262E28C013A92B2E284002A85D1DA6875
:1022D00022F08002DA60DA6842F04002DA607CE7DD
:1022E000511C216212785A60EBE750067FF575AFFA
:1022F0004A067FF572AFDA68204622F04002DA60C3
:10230000202384F83D30FFF7A6FE66E75B20000837
:10231000C28582858162034622220020186483F8E8
:102320003C0083F83E201B68DA6842F48072DA6071
:102330005A6942F001025A61DA6842F02002DA601A
:10234000704770B490F83E60202E10D161B15AB140
:1023500090F83C40012C0AD0012480F83C40002435
:10236000046370BCFFF7D4BF012070BC704702202B
:10237000FBE70000EFF3058313B16FF00500704732
:10238000EFF31083002BF8D1074B1868022806D111
:10239000EFF31183002BF0D14FF0FF30704700288E
:1023A000FAD101221A607047F802002010B5EFF34D
:1023B000058313B16FF0050010BDEFF31084002CFE
:1023C000F8D1094B1A68022A06D1EFF31183002BCA
:1023D000F0D14FF0FF30EFE7012AFAD102221A6064
:1023E00000F078FF2046E7E7F8020020F0B5144639
:1023F000002287B00B460592EFF3058252BBEFF344
:1024000010823ABB264A1268022A02D1EFF31182E7
:1024100002BBF8B100228DF81320002C30D02168C7
:1024200009B90DF11301A569002D08BF18256A1E11
:10243000372AAC462AD86268D20727D4666966B1C3
:10244000B208D4E9027E57B1BEF15B0F02D924690C
:1024500004B1EEB9059807B0F0BD8022F1E7BEF1F6
:10246000000FF7D12469002CF4D105ACCDE900C4EC
:1024700092B200F002FF01281CBF00230593E9E798
:102480004FF0180C80220DF11301EEE70020E2E777
:10249000CDE90147009500F0B9FE0590DAE700BFED
:1024A000F802002008B5EFF3058313B16FF00500C3
:1024B00008BDEFF31083002BF8D1074B1B68022BEC
:1024C00003D1EFF31183002BF0D10028F0D001F0FD
:1024D00057F80020ECE700BFF802002070B5054671
:1024E000EFF3058313B10024204670BDEFF3108392
:1024F000002BF8D11A4A1268022A03D1EFF3118295
:10250000002AF0D115B16B681A07ECD403F001066C
:102510007DB1D5E9021351B14F2BE4D9DEB10420CE
:1025200000F0A4FA04460028DDD02D680AE0002B54
:10253000D9D196B1042000F0CCFA04460028D2D0BC
:10254000002DF2D12946204600F0C8FC002ECBD049
:1025500044F00104C8E70120E2E70120EBE700BFF7
:10256000F8020020034610B520F001000C4603F0ED
:102570000103EFF3058212B16FF0050010BDEFF318
:102580001082002AF8D10F4A1268022A03D1EFF311
:102590001182002AF0D188B1214663B100F07CFCA1
:1025A000012801D10020E9E7002C14BF6FF00100E1
:1025B0006FF00200E2E700F0ABFBF1E76FF0030021
:1025C000DCE700BFF802002008B5034620F0010058
:1025D00003F00103EFF3058212B16FF0050008BDAF
:1025E000EFF31082002AF8D10C4A1268022A03D1B4
:1025F000EFF31182002AF0D168B13BB100F04BFA41
:1026000001280CBF00206FF00200E8E71A461946C7
:1026100000F07AF9F4E76FF00300E0E7F802002039
:10262000034B0360034B0B6080231360704700BFB4
:102630009C0200209C000020034B0360034B0B60B6
:102640004FF4807313607047FC060020FC020020EA
:102650004FF0FF3200F10803C0E902234360036139
:1026600000230360704700230361704743689A6842
:102670004B608A609A685160996003680861013311
:102680000360704730B50C68631C0AD103695A684F
:102690004A6091608B605960036808610133036090
:1026A00030BD00F10802134652681568A542FAD9F8
:1026B000EDE70369D0E901128A60516059688142EF
:1026C00008BF5A60002202611A68013A1A6018684D
:1026D000704710B5044601F0ADFBA46B01F0CCFBD4
:1026E000B4FA84F0400910BDF8B51546026C0446F2
:1026F000866B52B9076847BB406801F0C1F80546D0
:10270000676001362846A663F8BD65B9806801F0A8
:102710001FFFA368226C13446268A3609342F0D346
:102720002368A360EDE7C06801F012FF226CE36844
:1027300051429B1A2268E36093423EBF63685B1874
:10274000E360022D01D116B1013E0025D9E73546DF
:10275000D7E703461A6C084610B462B1DC685968C2
:1027600014448C4228BF1968DC6028BFD960D9683E
:1027700010BC01F0EDBE10BC704770B5044601F00E
:1027800059FB94F8455004F124066DB2002D14DC79
:10279000FF2384F8453001F06FFB01F04BFB94F808
:1027A000445004F110066DB2002D12DCFF2384F8B2
:1027B0004430BDE8704001F05FBB636A002BE7D096
:1027C000304600F077FF08B100F0FCFF013D6DB22C
:1027D000DCE72369002BE9D0304600F06BFF08B13D
:1027E00000F0F0FF013D6DB2DEE7000038B50D46A8
:1027F000044640B94FF0500383F31188BFF36F8F45
:10280000BFF34F8FFEE701F015FBD4E90F314B43C7
:102810002268D0185B1A13446060E3600020FF2335
:10282000A063A26084F8443084F8453095B92369E8
:1028300063B104F1100000F03DFF38B14FF0805259
:10284000094B1A60BFF34F8FBFF36F8F01F014FB7A
:10285000012038BD04F11000FFF7FAFE04F1240056
:10286000FFF7F6FEF2E700BF04ED00E037B50D46D6
:102870001C4640B94FF0500383F31188BFF36F8FAC
:10288000BFF34F8FFEE743B94FF0500383F3118836
:10289000BFF36F8FBFF34F8FFEE74AB191B94FF08F
:1028A000500383F31188BFF36F8FBFF34F8FFEE7A1
:1028B00041B14FF0500383F31188BFF36F8FBFF323
:1028C0004F8FFEE750230193019B502B08D04FF010
:1028D000500383F31188BFF36F8FBFF34F8FFEE771
:1028E0000121002D08BF2246C4E90F0584F84610D7
:1028F00020462260FFF77AFF20469DF8183084F8C2
:102900004C3003B030BD00002DE9FF4788461F461C
:102910000446019240B94FF0500383F31188BFF38E
:102920006F8FBFF34F8FFEE751B9036C43B14FF088
:10293000500383F31188BFF36F8FBFF34F8FFEE710
:10294000022F0BD1E36B012B08D04FF0500383F320
:102950001188BFF36F8FBFF34F8FFEE700F03EFF8C
:10296000064650B9019B4BB14FF0500383F31188D9
:10297000BFF36F8FBFF34F8FFEE700264FF00009C4
:10298000DFF8E4A037E0019D1DB901F075FA0020E1
:1029900050E016B902A800F0CDFE01F06DFA00F08B
:1029A000DDFC01F047FA94F84430FF2B08BF84F8AF
:1029B000449094F84530FF2B08BF84F8459001F00F
:1029C0005BFA01A902A800F0C1FE002846D101F07F
:1029D00031FAA26BE36B9A422FD101F04DFA0199C3
:1029E00004F1100000F02CFE2046FFF7C6FE00F0B8
:1029F00053FD50B3012601F01DFAA26BE36B9A421E
:102A000001D3022FBFD13A4641462046FFF76CFE64
:102A1000636A1BB104F1240000F04CFE38B14FF0A2
:102A20008052114B1A60BFF34F8FBFF36F8F01F0CD
:102A300023FA012004B0BDE8F08701F01DFA20461A
:102A4000FFF79BFE00F028FDD4E74FF08053CAF853
:102A50000030BFF34F8FBFF36F8FCBE72046FFF7F8
:102A60008CFE00F019FD92E704ED00E0002213B5A2
:102A70000B46009011460120FFF7F8FE044638B1DE
:102A800000231A461946C0E90033C360FFF73CFF34
:102A9000204602B010BD38B5044640B94FF050038F
:102AA00083F31188BFF36F8FBFF34F8FFEE7456845
:102AB00000F08EFE85420AD1E368013BE36023B952
:102AC0001A4619462046FFF71FFF012000E00020AC
:102AD00038BD70B50646502001F0DEFA044698B1C4
:102AE0000025012180F84650C0E90F150060FFF76E
:102AF0007DFE2B462A4629462046C4E9005584F827
:102B00004C60E560FFF700FF204670BD2DE9F843FB
:102B1000894690461F46044640B94FF0500383F360
:102B20001188BFF36F8FBFF34F8FFEE751B9036C6E
:102B300043B14FF0500383F31188BFF36F8FBFF39E
:102B40004F8FFEE7022F0BD1E36B012B08D04FF024
:102B5000500383F31188BFF36F8FBFF34F8FFEE7EE
:102B600001F048FAEFF311864FF0500383F3118818
:102B7000BFF36F8FBFF34F8FA26BE36B9A4201D30A
:102B8000022F22D194F845503A46494620466DB26C
:102B9000FFF7AAFD6B1C13D1636A0BB901200BE090
:102BA00004F1240000F086FD0028F7D0B8F1000FF2
:102BB000F4D00120C8F8000086F31188BDE8F8833E
:102BC00001356DB284F84550E8E70020F4E70000D5
:102BD0002DE9F04385B00F460446019240B94FF00D
:102BE000500383F31188BFF36F8FBFF34F8FFEE75E
:102BF00051B9036C43B14FF0500383F31188BFF315
:102C00006F8FBFF34F8FFEE700F0E8FD064650B927
:102C1000019B4BB14FF0500383F31188BFF36F8FCB
:102C2000BFF34F8FFEE700264FF00008DFF8DC907F
:102C30003BE0019D1DB901F01FF9002052E016B9DB
:102C400002A800F077FD01F017F900F087FB01F012
:102C5000F1F894F84430FF2B08BF84F8448094F8CE
:102C60004530FF2B08BF84F8458001F005F901A924
:102C700002A800F06BFD00283DD12046FFF729FD9A
:102C800098B3019904F1240000F0DAFC2046FFF724
:102C900074FD00F001FC38B94FF08053C9F80030E2
:102CA000BFF34F8FBFF36F8F012601F0C3F8A56B01
:102CB000002DBED039462046013DFFF74AFDA563F1
:102CC000236963B104F1100000F0F4FC38B14FF057
:102CD00080520E4B1A60BFF34F8FBFF36F8F01F01E
:102CE000CBF8012005B0BDE8F0832046FFF745FD95
:102CF00000F0D2FBD8E72046FFF73FFD00F0CCFB09
:102D00002046FFF7E6FC0028CED096E704ED00E071
:102D10002DE9FF410446019140B94FF0500383F380
:102D20001188BFF36F8FBFF34F8FFEE7056C45B17E
:102D30004FF0500383F31188BFF36F8FBFF34F8FB2
:102D4000FEE700F04BFD064650B9019B6BB14FF01A
:102D5000500383F31188BFF36F8FBFF34F8FFEE7EC
:102D60002E460027DFF82C8151E00546F9E7019B4C
:102D700063B945B14FF0500383F31188BFF36F8FF0
:102D8000BFF34F8FFEE701F077F85EE016B902A8B7
:102D900000F0D0FC01F070F800F0E0FA01F04AF821
:102DA00094F84430FF2B08BF84F8447094F8453001
:102DB000FF2B08BF84F8457001F05EF801A902A856
:102DC00000F0C4FC00284AD12046FFF782FC00280E
:102DD0003FD023683BB901F02DF8606800F00EFD8C
:102DE000054601F049F8019904F1240000F028FC9F
:102DF0002046FFF7C2FC00F04FFB38B94FF080537C
:102E0000C8F80030BFF34F8FBFF36F8F012601F07A
:102E100011F8A36B002BAAD0013BA363236813B95D
:102E200000F0BEFD6060236963B104F1100000F0A2
:102E300041FC38B14FF08052164B1A60BFF34F8FF0
:102E4000BFF36F8F01F018F80125284604B0BDE8E4
:102E5000F0812046FFF791FC00F01EFBD6E72046EC
:102E6000FFF78BFC00F018FB2046FFF732FC002830
:102E7000CCD0002DE9D000F0DDFF616A19B1236BE1
:102E80001968C1F13801606800F03CFD002500F0D0
:102E9000F3FFDAE704ED00E070B50D46044640B9F3
:102EA0004FF0500383F31188BFF36F8FBFF34F8F41
:102EB000FEE7466800F08CFC864204D10120E368FE
:102EC0000133E36070BD29462046FFF721FF00284B
:102ED000F8D0E3680133E360F4E70000002330B585
:102EE000064A52F8335002EBC3041DB942F83310BE
:102EF000606030BD0133082BF3D1FAE7381B0020A6
:102F000070B504460D46164600F094FF94F8443020
:102F1000FF2B04BF002384F8443094F84530FF2B86
:102F200004BF002384F8453000F0A6FFA36B2BB943
:102F30003246294604F1240000F09CFB2046BDE8FF
:102F40007040FFF71ABC00002DE9F041044600F084
:102F500071FF2F4B2F4D1A682F4F01321A602E68C8
:102F6000002E49D12C601B68012B1FD1B84640466A
:102F70000136FFF76DFB382E08F11408F7D1DFF8A2
:102F8000C480264E4046FFF763FB3046FFF760FBE8
:102F90002348FFF75DFB2348FFF75AFB2248FFF762
:102FA00057FB224BC3F80080214B1E601420214A9E
:102FB000136801331360204A63641168E36A8B422B
:102FC00000FB037004F1040188BF1360FFF74EFBA0
:102FD00000F052FF194B1B6863B12B68DA6AE36A91
:102FE0009A4207D24FF08052154B1A60BFF34F8FB1
:102FF000BFF36F8FBDE8F081104B1B68002BD5D15C
:103000002B68DA6AE36A9A4298BF2C60CEE700BF69
:10301000C40B00205807002064070020F00B00209C
:103020000C0C0020380C0020240C00205C07002031
:1030300060070020D40B0020D80B0020200C0020BB
:1030400004ED00E0DC0B0020064A13681968064B0B
:1030500019B94FF0FF321A6070471268D268D2680F
:103060005268F8E75C070020040C00202DE9F047C7
:103070000D46DDE909844FEA82094A460646A52144
:10308000206B1F4601F072FA226BA9F104099144EA
:103090006B1E29F0070904F134020F3513F8011FE4
:1030A00002F8011B197809B1AB42F7D1089D4FF026
:1030B000000A372D28BF3725201DC4E9135AE562C1
:1030C00084F843A0FFF7CFFAC5F1380504F11800E2
:1030D000FFF7C9FAC4F854A03A463146484624617D
:1030E000A561646284F858A000F080FE2060B8F109
:1030F000000F01D0C8F80040BDE8F08710B590F887
:10310000593004463BB9006B01F050F82046BDE849
:10311000104001F04BB8012BF9D0022B08D04FF032
:10312000500383F31188BFF36F8FBFF34F8FFEE718
:1031300010BD000080B5DFF85C80124F124C134DBB
:10314000236863B9124B1B68012BF8D94FF08053E9
:10315000C8F80030BFF34F8FBFF36F8FEEE700F07A
:1031600069FEFB68DE68301DFFF7A3FA2B68013BA0
:103170002B602368013B236000F07EFE3046FFF7A2
:10318000BDFFDDE7380C0020C80B0020C40B002079
:103190006407002004ED00E0F8B50546154B164E17
:1031A0001C6830680F460430FFF783FA6B1C334607
:1031B00007D137B1316811480431BDE8F840FFF755
:1031C00055BA1A686419546007D30D4A1068196813
:1031D000BDE8F8400431FFF755BA0A4A106819688B
:1031E0000431FFF74FFA084B1A68A24288BF1C60EF
:1031F000F8BD00BF4C0C002058070020240C002014
:10320000600700205C070020040C002070B586B029
:10321000DDE90B5445B94FF0500383F31188BFF338
:103220006F8FBFF34F8FFEE744B94FF0500383F326
:103230001188BFF36F8FBFF34F8FFEE75C260496B4
:10324000049E5C2E08D04FF0500383F31188BFF327
:103250006F8FBFF34F8FFEE72563022584F8595027
:1032600005AD01950A9D02940095FFF7FFFE2046EB
:10327000FFF76AFE059806B070BD2DE9F0430746DA
:1032800085B0900088461646994600F005FF054631
:10329000E8B15C2000F000FF0446A8B1002380F8EC
:1032A00059300D9B056301930C9B324641460290B9
:1032B000009338464B46FFF7D9FE2046FFF744FE01
:1032C000012005B0BDE8F083284600F06FFF4FF005
:1032D000FF30F6E710B5002488B007AA06A905A8B4
:1032E000CDE90544FFF79CF9059B079A0293069BDD
:1032F0001549CDE9004315482346FFF787FFA8B1DC
:1033000000F0ACFB012813D14FF0500383F3118878
:10331000BFF36F8FBFF34F8F4FF0FF320C4B1A602C
:103320000C4B18600C4B1C6000F00CFE08B010BD7C
:103330000130FBD14FF0500383F31188BFF36F8F3F
:10334000BFF34F8FFEE700BF154F0008353100086F
:10335000040C0020200C00204C0C0020024A1368B2
:1033600001331360704700BFD00B0020014B186879
:10337000704700BF4C0C00202DE9F84F3B4B1B68F9
:10338000002B6DD13A4B1D6801351D60BDB9394B1D
:103390001A68126842B14FF0500383F31188BFF3EB
:1033A0006F8FBFF34F8FFEE7334A196810681860BC
:1033B0001160324A136801331360FFF745FE304E47
:1033C000002433682F4FAB4210D92F4B1B68DA6AA9
:1033D00014235343FB58022B28BF01242B4B1B689B
:1033E000002B0CBF20460120BDE8F88FDFF8849049
:1033F000DFF8A0A0D9F800301B681BB94FF0FF33ED
:103400003360E2E7D9F80030DB68D3F80CB0DBF8C2
:103410000420954201D23260D7E70BF10408404600
:10342000FFF747F9DBF828201AB10BF11800FFF776
:1034300040F91423DBF82C00DAF8002041469042D2
:1034400088BFCAF8000003FB0070FFF70FF90E4BAE
:10345000DBF82C201968CB6A9A4228BF0124C9E7FF
:103460000B4A0024136801331360B7E7D00B002028
:103470004C0C00205C07002060070020080C002096
:10348000040C00206407002058070020500C002086
:10349000CC0B0020D80B00202DE9F0412F4C2368E5
:1034A00043B94FF0500383F31188BFF36F8FBFF31D
:1034B0004F8FFEE700F0BEFC2368013B23602468C9
:1034C0002CB1002400F0D8FC2046BDE8F081244B4C
:1034D0001B68002BF5D0234D234EDFF8A0801DE0A4
:1034E000EB68DC68271D04F11800FFF7E2F83846A6
:1034F000FFF7DFF81420E36A326800FB0380934291
:10350000394688BF3360FFF7B1F8184BE26A1B6891
:10351000DB6A9A4202D30122154B1A602B68002BFA
:10352000DED10CB1FFF790FD124D2C6844B101279C
:103530000F4EFFF721FF00B13760013CF9D12C603D
:103540000B4B1B68002BBCD04FF080520A4B1A600B
:10355000BFF34F8FBFF36F8F0124B3E7D00B002071
:10356000C40B00200C0C0020D80B002058070020B2
:10357000500C0020CC0B002004ED00E0640700207C
:1035800008B540B94FF080520D4B1A60BFF34F8F12
:10359000BFF36F8F08BD0B4B196841B14FF050035B
:1035A00083F31188BFF36F8FBFF34F8FFEE7FFF7F1
:1035B000D5FEFFF7F1FDFFF76FFF0028E2D0E9E746
:1035C00004ED00E0D00B0020184BF0B51A68184B42
:1035D00012B101221A60F0BD1A60164A142716466D
:1035E000154D2B6807FB03F15458501894B14468EB
:1035F000083164680A44944208BF6268446008BFA6
:103600004260142202FB03625268D1680B4A1160C7
:103610002B60E0E743B94FF0500383F31188BFF309
:103620006F8FBFF34F8FFEE7013BDBE7D00B00202E
:10363000500C002064070020D80B00205807002001
:1036400010B50C4640B94FF0500383F31188BFF317
:103650006F8FBFF34F8FFEE7054B19681831FFF7E7
:1036600011F82046BDE810400121FFF795BD00BFCD
:103670005807002038B50D46144640B94FF05003A6
:1036800083F31188BFF36F8FBFF34F8FFEE7084BB3
:1036900019681831FEF7EAFF002C214608BF2846BA
:1036A000BDE8384018BF4FF0FF30FFF775BD00BFD1
:1036B0005807002038B5C368DC6844B94FF05003A0
:1036C00083F31188BFF36F8FBFF34F8FFEE704F1D1
:1036D00018052846FEF7EDFF104B1B68DBB9251DCA
:1036E0002846FEF7E6FF0E4A14201168E36A8B4273
:1036F000294688BF13600B4A00FB0320FEF7B6FF84
:10370000094BE26A1B68DB6A9A4285BF0120074BBE
:103710000020186038BD29460548EFE7D00B00208F
:10372000D80B00206407002058070020500C002010
:103730000C0C0020034B1B680360034B1B684360A9
:10374000704700BF080C00204C0C002070B50C46E0
:10375000054640B94FF0500383F31188BFF36F8FD4
:10376000BFF34F8FFEE741B94FF0500383F3118849
:10377000BFF36F8FBFF34F8FFEE700F05BFB0F4B84
:10378000196823685A1C10D00D482E6800686A68B2
:10379000864201D08A420FD9881A83420AD95B1A1D
:1037A000134428462360FFF7C5FF002400F064FBA4
:1037B000204670BD002323600124F7E74C0C002055
:1037C000080C00200122014B1A607047500C0020A9
:1037D000014B1868704700BF58070020054B1B6855
:1037E00033B1054B1B68002B0CBF02200020704733
:1037F00001207047200C0020D00B0020F8B50446B3
:1038000000282BD01B4AC36A11681646C96A8B422E
:1038100027D28269184D002AA1BF3268D26AC2F14C
:1038200038028261142202FB035342699A4211D189
:10383000071D3846FEF73DFF3368104ADB6A116802
:10384000E3628B420BD81420394600FB0350FEF78D
:103850000DFF02E03368DB6AC3620120F8BD13602C
:10386000F1E71368C06CDC6AA0422CBF0020012085
:10387000F4E700BF5807002064070020D80B0020A1
:1038800038B508B9002038BD1B4B1C68844208D0ED
:103890004FF0500383F31188BFF36F8FBFF34F8F47
:1038A000FEE7236D43B94FF0500383F31188BFF354
:1038B0006F8FBFF34F8FFEE7E16AE26C013B9142ED
:1038C0002365DFD0002BDDD1251D2846FEF7F1FE54
:1038D0001420E36CC3F13802A261084AE362116864
:1038E0008B4288BF1360064A294600FB0320FEF77F
:1038F000BDFE0120C7E700BF58070020D80B0020FD
:103900006407002070B50446002841D0026D42B91A
:103910004FF0500383F31188BFF36F8FBFF34F8FC6
:10392000FEE7C36C994238BF1946C36A8B422FD059
:10393000012A2DD1174A1268824208D14FF0500354
:1039400083F31188BFF36F8FBFF34F8FFEE7826958
:10395000114D002A4FF0140202FB03534269C16269
:10396000A4BFC1F1380181619A4211D1061D3046D0
:10397000FEF79FFE1420094AE36A116800FB03501A
:103980008B423146BDE8704088BF1360FEF76EBEC3
:1039900070BD00BF5807002064070020D80B00202E
:1039A000044B1A681AB119680A6D01320A65186861
:1039B000704700BF58070020F7B5114C00F03AFAE5
:1039C0002568BDB90F4F104E3846FEF741FE304610
:1039D000FEF73EFE0D4B10211F600D4B0A201E60AE
:1039E0000C4A0D4B0095FEF741FF206010B10B49CA
:1039F000FFF774FA03B0BDE8F04000F03DBA00BF35
:103A0000780D0020FC0C0020100D0020540C00202C
:103A1000580C00205C0C0020280D00201A4F0008D4
:103A2000914208B5416000610AD8D21A83699A426E
:103A30000DD2084B011D1868FEF724FE002008BDBA
:103A40009A4201D2994202D2034B011DF3E70120B1
:103A5000F5E700BF580C0020540C002010B588B0CA
:103A6000FFF7AAFF124B1B68B3B1002407AA06A9EF
:103A700005A8CDE90544FEF7DFFD059B079A0293F3
:103A8000069B0C49019302230B4800932346FFF742
:103A9000BDFB0A4B186040B94FF0500383F3118807
:103AA000BFF36F8FBFF34F8FFEE7012008B010BD4B
:103AB000780D00201F4F0008953B00087C0D00206A
:103AC0007FB5164604461A4640B94FF0500383F3BB
:103AD0001188BFF36F8FBFF34F8FFEE70D4D28683E
:103AE00080B10529CDE9001602940DDCFFF776FEC2
:103AF0000023022818BF1A46694608BF089A28689A
:103B0000FEF702FF04B070BD00236946FEF7FEFF1A
:103B1000F8E700BF780D00202DE9F3414FF00008D1
:103B20001A4D2B681A6832B9194A11681360296056
:103B300002B0BDE8F081DB68DC681E68271D3846EE
:103B4000FEF7B7FD636A20469847E369012BE8D189
:103B5000A36933449E4206D23946286863602461D3
:103B6000FEF790FDDDE70023324619462046CDF8EA
:103B70000080FFF7A5FF0028D3D14FF0500383F357
:103B80001188BFF36F8FBFF34F8FFEE7540C0020F7
:103B9000580C00202DE9F04F774EDFF8EC91B0463D
:103BA00087B03368D3F800B0BBF1000F48D0DB68B2
:103BB000D3F800A0FFF7D2FBFFF7D8FB6F4D044608
:103BC0002B682F4698423DD2FFF7A6FF2C60FFF7E7
:103BD00063FC4FF0000BDFF8ACA10022DAF8000024
:103BE00002A9FEF7F5FF0028DBD0029B0498002B0A
:103BF00072DB049C6369002B76D1FFF7B7FB3B684F
:103C00000546984201D2FFF787FF029B3D60092BD2
:103C1000E3D801A252F823F0F13C0008F13C00087F
:103C2000F13C0008DB3B00083F3D0008653D000813
:103C3000F13C0008F13C0008DB3B00083F3D000878
:103C4000DA46B7E72860BBF1000F2AD0824541D899
:103C5000FFF722FCD8F80030DB68DD68281DFEF78E
:103C600028FDEB69012B18D1A96953462246284645
:103C70005144FFF7D5FE80B100235246194628462D
:103C80000093FFF71DFF40B94FF0500383F31188F5
:103C9000BFF36F8FBFF34F8FFEE728466B6A9847DD
:103CA00097E7374B1B681A68B2FA82F25209354B14
:103CB000AAEB04011868FFF723F9FFF7EDFB0028D2
:103CC00087D14FF08053C9F80030BFF34F8FBFF357
:103CD0006F8F7EE70022EAE7039B05999847029BD6
:103CE000002BFFF67AAF84E7201DFEF7E2FC84E7A5
:103CF000A169039B2A4620461944FFF791FE00283C
:103D00003FF46BAF636A20469847E369012B7FF469
:103D100064AF0023A269039920460A44CDF800B09D
:103D20001946FFF7CDFE00287FF457AF4FF0500340
:103D300083F31188BFF36F8FBFF34F8FFEE70399B3
:103D4000A16141B94FF0500383F31188BFF36F8F26
:103D5000BFF34F8FFEE72B462A4620462944FFF744
:103D60005FFE3AE794F82C30002B7FF436AF204604
:103D700000F01CFA31E700BF540C0020240D002095
:103D8000580C0020780D002004ED00E00648006883
:103D9000006880F3088862B661B6BFF34F8FBFF347
:103DA0006F8F00DF00BF000008ED00E0002382B04D
:103DB00001930D4B1B68013308D04FF0500383F380
:103DC0001188BFF36F8FBFF34F8FFEE74FF05003A3
:103DD00083F31188BFF36F8FBFF34F8F019B002BCD
:103DE000FCD002B0704700BF100000204FF080737D
:103DF00040F8043C054B21F0010140F8081C40F854
:103E00000C3C40F8202C4038704700BFAD3D000806
:103E1000074B19680868B0E8F00F80F30988BFF312
:103E20006F8F4FF0000080F311884EF00D0E704739
:103E3000580700204FF0500383F31188BFF36F8FB2
:103E4000BFF34F8F0A4A13680133012B13600DD162
:103E5000084B1B6813F0FF0F08D04FF0500383F39B
:103E60001188BFF36F8FBFF34F8FFEE7704700BF1E
:103E70001000002004ED00E0084A136843B94FF039
:103E8000500383F31188BFF36F8FBFF34F8FFEE7AB
:103E9000013B13600BB983F31188704710000020B9
:103EA000EFF30980BFF36F8F0D4B1A6820E9F00F15
:103EB00010602DE908404FF0500080F31188FFF7A3
:103EC00083FB4FF0000080F31188BDE808401968BB
:103ED0000868B0E8F00F80F30988BFF36F8F704770
:103EE0005807002008B54FF0500383F31188BFF343
:103EF0006F8FBFF34F8FFFF73FFA18B14FF080522B
:103F0000024B1A60002383F3118808BD04ED00E022
:103F10000023084A084913600B604FF47A71074B7D
:103F20001B68B3FBF1F30649013B0B6007231360E9
:103F3000704700BF10E000E018E000E0040000203F
:103F400014E000E013B5264B00211A78D2B201929A
:103F5000FF221A701B78234ADBB28DF803309DF8DC
:103F6000033003F05003137007231F4A13609DF8BA
:103F700003005C1E00060CD411B1032B136011D09A
:103F80004FF0500383F31188BFF36F8FBFF34F8F50
:103F9000FEE79DF8033001215B00DBB28DF80330B2
:103FA0002346E4E74FF4407300241360019B0C4A5E
:103FB000DBB213700D4B1A6842F470021A601A6873
:103FC00042F070421A60FFF7A3FF094B1C60FFF735
:103FD000DDFEFFF7F9FAFFF7E9FE204602B010BD5B
:103FE00000E400E0800D0020840D002020ED00E0C2
:103FF00010000020EFF305830F2B0ED9104A9B5CB5
:10400000104A12789A4208D94FF0500383F311886E
:10401000BFF36F8FBFF34F8FFEE70B4B0B4A1B684D
:10402000126803F4E063934208D94FF0500383F31E
:104030001188BFF36F8FBFF34F8FFEE7704700BF4C
:10404000F0E300E0800D00200CED00E0840D002086
:1040500010B50F4B1A461B688342FBD354681119E5
:10406000884201BF4168104609195160446801192E
:104070008B4207D1074909688B421FBF59681B68EB
:10408000091941609042036018BF106010BD00BF65
:1040900098190020880D00202DE9F0410446FFF713
:1040A0005DF93B4B3B481A689C46D2B900213A4A1D
:1040B0003A4B55071CBF073222F007021A605960BD
:1040C000374B23F00703C3E90011991AC2E9003105
:1040D000CCF80030334B1960334B19604FF000437C
:1040E0000360076827424ED1002C3FD004F108033B
:1040F00061071CBF23F007030833002B43D02A4A73
:10410000166890469E423ED3244A156869689942D3
:1041100001D22868A8B9DCF80000A84233D028688A
:10412000C91A10291468106012D9E81842070BD078
:104130004FF0500383F31188BFF36F8FBFF34F8F9E
:10414000FEE72A460546E1E741606B60FFF780FF26
:104150006B681449F61A1F4300230868C8F800600A
:10416000864238BF0E6008346F602B60FFF794F909
:1041700063070AD04FF0500383F31188BFF36F8FAA
:10418000BFF34F8FFEE70024F0E72046BDE8F08143
:10419000880D00208C1900208C0D0020981900201B
:1041A00084190020941900209019002010B50446AD
:1041B00070B3184A50F8043C1268134208D14FF00B
:1041C000500383F31188BFF36F8FBFF34F8FFEE768
:1041D00050F8081C41B14FF0500383F31188BFF32E
:1041E0006F8FBFF34F8FFEE723EA020340F8043CD2
:1041F000FFF7B4F8084A54F8043C1168A4F1080029
:104200000B441360FFF724FFBDE81040FFF744B9EB
:1042100010BD00BF8C1900209019002070B50A460F
:10422000044601B101224FF480711248FCF78EFF61
:104230000825104E002220213046FCF787FF230678
:104240004CBF0122002240213046FCF77FFF013D98
:10425000012220213046FCF779FF640015F0FF05AC
:10426000E4B2E7D1BDE8704001224FF4807101480B
:10427000FCF76CBF0018014070B5B0240E4E002151
:104280002046FFF7CBFF00210846FFF7C7FF0021BC
:104290001020FFF7C3FF002516F835000121013576
:1042A000FFF7BCFF802DF7D10134E4B2B82C06F142
:1042B0000106E4D170BD00BF781B00200823002058
:1042C0000749002201F832000132802AFAD1013B6D
:1042D00013F0FF0301F10101F3D1FFF7CDBF00BFE0
:1042E000781B0020030630B513D43F2911D80123D1
:1042F00001F00705094CC908C1F10701C5F107051F
:10430000C9B204EBC00003FA05F5435C12B12B43BC
:10431000435430BD23EA0503FAE700BF781B0020B1
:104320002DE9F74FA2F1200598461E4BEDB203EBA5
:10433000051300930C23824689460C4600271A4A2F
:104340009DF830B003FB05230193B84502D103B0BB
:10435000BDE8F08FB8F10C0F0CBF019B009BDE5D38
:1043600004F10803DDB2330658BFBBFA8BF22146D5
:1043700004F101044CBF5A4652095046E4B2FFF71B
:10438000B1FFA4EB090276004245F6B207D14D46D3
:104390000AF101005FFA80FA2C460137D5E7A54201
:1043A000E1D1F9E79B530008274F0008F7B5044611
:1043B0000D460127561E16F8013F0BB903B0F0BD9C
:1043C0007A2C82BF1035EDB200243A2D03D9002596
:1043D000FFF774FF2C46009720460C2329463278BD
:1043E0000834FFF79DFFE4B2E5E7000010B5FCF7E5
:1043F000BBFE404B404C1A6A22F001021A621A6A54
:1044000022F004021A62FCF7B5FE00228021204649
:10441000FCF79CFE6420FCF779FC012220468021F9
:10442000FCF794FE0021AE20FFF7F8FE0021D52016
:10443000FFF7F4FE00215020FFF7F0FE0021A82036
:10444000FFF7ECFE00213F20FFF7E8FE0021D3201C
:10445000FFF7E4FE00210846FFF7E0FE00214020C0
:10446000FFF7DCFE00218D20FFF7D8FE002114208D
:10447000FFF7D4FE00212020FFF7D0FE002102200C
:10448000FFF7CCFE0021A120FFF7C8FE0021C020CD
:10449000FFF7C4FE0021DA20FFF7C0FE0021122042
:1044A000FFF7BCFE00218120FFF7B8FE0021EF20BE
:1044B000FFF7B4FE0021D920FFF7B0FE0021F12064
:1044C000FFF7ACFE0021DB20FFF7A8FE0021302023
:1044D000FFF7A4FE0021A420FFF7A0FE0021A620E4
:1044E000FFF79CFE0021AF20FFF798FEBDE81040CB
:1044F000FFF7E4BE0010024000180140014B1868AD
:10450000704700BF1400002070B500260C4D0D4C04
:10451000641BA410A64209D100F064FC00260A4DD9
:104520000A4C641BA410A64205D170BD55F8043B8B
:1045300098470136EEE755F8043B98470136F2E715
:10454000C0590008C0590008C0590008C4590008E3
:104550000A44914200F1FF3300D1704710B511F8C1
:10456000014B914203F8014FF9D110BD03460244BB
:10457000934200D1704703F8011BF9E70EB46FF0C6
:10458000004100B59CB01DAB0290069007910491CC
:104590000848094953F8042B0591006802A90193C2
:1045A00000F070F80022029B1A701CB05DF804EB5A
:1045B00003B07047140000200802FFFF034611F803
:1045C000012B03F8012B002AF9D170472DE9F047A0
:1045D0008E6882469E420C4690461F4638D88A898D
:1045E00012F4906F32D0256809690133A5EB0109F7
:1045F00065694B4405EB450505EBD5756D109D428E
:1046000038BF1D46530531D5294600F045FB064607
:1046100050B90C234FF0FF30CAF80030A38943F0A3
:104620004003A381BDE8F0874A462169FFF790FF68
:10463000A38923F4906343F08003A38126614E4451
:1046400026603E466561A5EB0905A560BE4200D91E
:104650003E4632464146206800F0B8FAA368226818
:104660009B1B32440020A3602260DBE72A4600F057
:104670006DFB06460028E1D15046216900F0C0FAE2
:10468000C7E700002DE9F04F98468B8907461B06C7
:104690000D4614469DB00ED50B6963B9402100F05C
:1046A000FBFA2860286120B90C233B604FF0FF30F3
:1046B000D1E040236B610023099320238DF829303A
:1046C00030234FF00109CDF80C80DFF8A4818DF87C
:1046D0002A3023469A4613F8012B0AB1252AF9D12C
:1046E000BAEB040B0BD05B46224629463846FFF74F
:1046F0006DFF013000F0AA80099A5A4409929AF895
:104700000030002B00F0A28000234FF0FF32CDE9F3
:1047100005230AF1010A049307938DF853301A9385
:104720005446052214F8011B514800F041FA049A3E
:10473000D8B9D00644BF20238DF85330110744BFA9
:104740002B238DF853309AF800302A2B15D054467D
:1047500000204FF00A0C079A214611F8013B303B2C
:10476000092B4ED9B0B1079214E0A0EB080309FA67
:1047700003F31343A2460493D2E7039B191D1B685E
:104780000391002BBBBF5B4242F0020207930793E9
:10479000B8BF049223782E2B0CD163782A2B35D105
:1047A000039B02341A1D1B680392002BB8BF4FF005
:1047B000FF330593DFF8C8A003225046217800F0AC
:1047C000F7F940B14023A0EB0A0003FA00F0049B84
:1047D00001340343049314F8011B062225488DF885
:1047E000281000F0E5F9002838D0234B1BBB039BB1
:1047F000073323F0070308330393099B33440993DA
:1048000067E70C4601200CFB0232A5E700234FF0BE
:104810000A0C194601340593204610F8012B303A52
:10482000092A03D9002BC5D00591C3E7044601230B
:104830000CFB0121F0E703AB00932A4638460F4BEF
:1048400004A9AFF30080421C0646D6D1AB895B06B3
:104850003FF52CAF09981DB0BDE8F08F03AB009376
:104860002A463846054B04A900F07CF8EBE700BF68
:104870008B5900089559000800000000CD4500083C
:10488000915900082DE9F047164699468A680B6948
:1048900007469342B8BF1346336091F843200C4655
:1048A000DDF820800AB1013333602368990642BFE6
:1048B000336802333360256815F0060506D104F12C
:1048C000190AE36832689B1AAB4228DC94F843204B
:1048D000131E226818BF012392062DD4494638467C
:1048E00004F14302C047013020D02368E56803F09B
:1048F0000603042B18BF002532684FF00006A3689A
:1049000008BFAD1A226908BF25EAE5759342C4BF06
:104910009B1AED181A34B5421AD1002008E0012381
:10492000524649463846C047013003D14FF0FF3068
:10493000BDE8F0870135C4E73020E11881F8430075
:104940005A1C94F845102244023382F84310C5E7FC
:104950000123224649463846C0470130E6D0013699
:10496000D9E700002DE9FF470C46277E9146782FB6
:1049700080469A460C9904F1430207D8622F0AD860
:10498000002F00F0D980582F00F0A48004F14206D7
:1049900084F842703AE0A7F16303152BF6D801A022
:1049A00050F823F0FD490008114A00088D4900081D
:1049B0008D4900088D4900088D490008114A0008FA
:1049C0008D4900088D4900088D4900088D4900086F
:1049D0001F4B0008414A0008014B00088D490008A0
:1049E0008D490008414B00088D490008414A0008E4
:1049F0008D4900088D490008094B00080B6804F137
:104A000042061A1D1B680A6084F842300123A4E0A4
:104A1000256808682E0600F104030AD505680B60B6
:104A2000002D03DA2D236D4284F843300A235E48BB
:104A300019E015F0400F05680B6018BF2DB2EFE7C5
:104A40000B682568181D0860280601D51D6802E05E
:104A50006906FBD51D886F2F0CBF08230A23524817
:104A6000002184F843106668002EA8BF2168A66064
:104A7000A4BF21F0040121600DB9002E4DD01646CF
:104A8000B5FBF3F103FB1157C75D06F8017D2F4617
:104A9000BB420D46F4D9082B0BD12368DF0708D59C
:104AA000236961689942DEBF302306F8013C06F1B4
:104AB000FF36921B22614B4621464046CDF800A0AE
:104AC00003AAFFF7DFFE01304CD14FF0FF3004B0F6
:104AD000BDE8F087344884F845700E68236856F8BE
:104AE000045B1F060E6014D5D90744BF43F02003B2
:104AF00023601DB9236823F0200323601023AFE750
:104B0000236843F0200323607823284884F8453045
:104B1000E3E75E0648BFADB2E6E71646BBE70B68C3
:104B200026681D1D60690D6035061B6801D518607B
:104B300002E07106FBD51880002316462361BAE710
:104B40000B681A1D0A601E6800213046626800F07A
:104B50002FF808B1801B606063682361002384F82C
:104B60004330A8E73246494640462369D0470130E2
:104B7000ABD023689B0713D4E068039B9842B8BF6F
:104B80001846A4E70123324649464046D047013043
:104B90009BD00135E36803995B1AAB42F2DCEBE78B
:104BA000002504F11906F5E79C590008AD590008E5
:104BB000034610B5C9B202449342184601D1002001
:104BC00003E0047801338C42F6D110BD884210B561
:104BD00001EB020402D98442234607D8431EA142B6
:104BE00008D011F8012B03F8012FF8E70146024421
:104BF0008A4200D110BD13F8014D02F8014DF7E7CC
:104C000038B50546002943D051F8043C0C1F002B51
:104C1000B8BFE41800F0D0F81E4A1368104633B944
:104C2000636014602846BDE8384000F0CBB8A3426A
:104C30000AD921686218934201BF1A685B6852184A
:104C4000226063600460EDE71A465B680BB1A34223
:104C5000FAD911685018A0420BD1206801445018AD
:104C600083421160DED118685B68014411605360B3
:104C7000D8E702D90C232B60D4E7206821188B4297
:104C800001BF19685B680918216063605460C9E757
:104C900038BD00BFA0190020F8B5CD1C25F00305D4
:104CA00008350C2D38BF0C25002D064601DBA94226
:104CB00003D90C2333600020F8BD00F07DF82149B2
:104CC0000A6814469CB9204F3B6823B921463046F8
:104CD00000F062F838602946304600F05DF8431C69
:104CE00023D10C233046336000F06CF8E3E72368EF
:104CF0005B1B17D40B2B03D923601C44256004E0F5
:104D00006368A2420CBF0B605360304600F05AF853
:104D100004F10B00231D20F00700C21ACCD01B1A8F
:104D2000A350C9E722466468CCE7C41C24F00304FE
:104D3000A042E3D0211A304600F02EF80130DDD138
:104D4000CFE700BFA0190020A4190020F8B507463E
:104D500014460E4621B91146BDE8F840FFF79CBF46
:104D600022B9FFF74DFF25462846F8BD00F030F880
:104D7000A0420FD221463846FFF78EFF0546002895
:104D8000F2D031462246FFF7E3FB31463846FFF7C3
:104D900037FFE9E73546E7E738B50023054D044618
:104DA00008462B60FBF722FF431C02D12B6803B19E
:104DB000236038BD781F0020014800F011B800BF03
:104DC000801F0020014800F00CB800BF801F0020A9
:104DD00051F8043C181F002BBCBF0B58C01870477B
:104DE00070477047F8B500BFF8BC08BC9E467047D6
:0C4DF000F8B500BFF8BC08BC9E46704738
:104DFC005370656564313A25303564000053706535
:104E0C006564323A253035640000526561724D6F2D
:104E1C00746F7200456E636F6465725461736B00DE
:104E2C004D6F746F725461736B0053686F7754617C
:104E3C00736B0064656661756C745461736B000010
:104E4C00204E0008000000000000000000000000E0
:104E5C00000000000002000008000000000000003C
:104E6C00000000002C4E00080000000000000000B4
:104E7C00000000000000000000020000080000001C
:104E8C000000000000000000164E000800000000AA
:104E9C000000000000000000364E0008000000007A
:104EAC0000000000000000000000000000020000F4
:104EBC000800000000000000000000003F4E000849
:104ECC0000000000000000000000000000000000D6
:104EDC0000020000180000000000000000000000AC
:104EEC00000000000000000001020304060708098E
:104EFC000000000001020304020304050607080970
:104F0C000A0B0C0D0E0F10100049444C4500546D4B
:104F1C00725100546D722053766300000000000043
:104F2C0000000000000000000000003F40000000F6
:104F3C00000000000030004000300040000000097C
:104F4C00000BC03D000BC03D00090018C024407F81
:104F5C00E0224031800000180024C01B000D80327C
:104F6C0040018003801C4027401C800740004010FB
:104F7C0000600000000000000000000000000000C5
:104F8C00001F80204040200000402020401F800057
:104F9C00000000090006001F800600090000000444
:104FAC000004003F800400040000000010006000BA
:104FBC0000000000000000040004000400040004D1
:104FCC000000000000004000000000000000000095
:104FDC002001C006003800400000001F8020402047
:104FEC004020401F800000000010403FC0004000E7
:104FFC0000000018C021402240244018400000103E
:10500C00802040244024401B80000002000D001131
:10501C00003FC0014000003C802440244024402339
:10502C008000001F80244024403440038000003066
:10503C0000200027C03800200000001B80244024E2
:10504C004024401B8000001C0022C0224022401F34
:10505C00800000000000000840000000000000007C
:10506C000000000460000000000000000004000AC2
:10507C0000110020804040090009000900090009C6
:10508C0000000000004040208011000A00040018BD
:10509C0000200023402400180000001F802040271F
:1050AC004029401F400000004007C039000F00019C
:1050BC00C0004020403FC0244024401B8000001F03
:1050CC00802040204020403080000020403FC02005
:1050DC004020401F80000020403FC024402E403024
:1050EC00C0000020403FC024402E00300000000FC4
:1050FC00001080204022403380020020403FC0043A
:10510C000004003FC02040204020403FC0204020F1
:10511C004000000060202020203FC0200020002004
:10512C00403FC024400B0030C0204020403FC020F6
:10513C00400040004000C03FC03C0003C03C003F6A
:10514C00C0000020403FC00C4023003FC020001F87
:10515C00802040204020401F80000020403FC02481
:10516C00402400180000001F802140214020E01F37
:10517C00A0000020403FC02440260019C000401869
:10518C00C024402440224031800000300020403FA9
:10519C00C020403000000020003F80004000403F15
:1051AC0080200020003E0001C0070038002000389D
:1051BC000007C03C0007C038000000204039C00682
:1051CC000039C0204000002000384007C038402083
:1051DC00000000304021C02640384020C0000000B4
:1051EC000000007FE0402040200000000070000C18
:1051FC00000380004000000000402040207FE000C1
:10520C000000000000200040002000000000000012
:10521C0010001000100010001000100000000040E2
:10522C000000000000000000000280054005400363
:10523C00C0004020003FC004400440038000000038
:10524C00000380044004400640000000000380047A
:10525C004024403FC000400000038005400540034F
:10526C00400000000004401FC024402440200000E7
:10527C000002E0055005500650042020403FC004B9
:10528C0040040003C000400000044027C000400060
:10529C0000000000100010041027E00000000020A7
:1052AC00403FC00140070004C00440204020403F64
:1052BC00C000400040000007C0040007C004000309
:1052CC00C00000044007C00440040003C0004000BC
:1052DC000003800440044003800000041007F00425
:1052EC005004400380000000000380044004500779
:1052FC00F00010044007C00240040004000000004D
:10530C000006400540054004C00000000004001FDA
:10531C008004400040000004000780004004400767
:10532C00C000400400070004C00180060004000611
:10533C000001C0070001C006000000044006C001C7
:10534C000006C0044000000410071004E0018006B1
:10535C000004000000044005C006400440000000AA
:10536C0000000004007BE040200000000000000072
:10537C0000FFF000000000000040207BE004000073
:10538C000000004000800040002000200040000091
:10539C000000000000000000000000000000000001
:1053AC0000000000001FCC000C00000000000000FA
:1053BC0000080030006000080030006000000002AF
:1053CC002003FC1E20022003FC1E200220000000F3
:1053DC00000E1811043FFF10840C78000000000F21
:1053EC000010840F3800C007781884007800000083
:1053FC00780F8410C411240E9800E400840008086F
:10540C0000680070000000000000000000000000B8
:10541C00000000000007E018182004400200000003
:10542C000040022004181807E000000000000002F1
:10543C0040024001800FF001800240024000000059
:10544C0080008000800FF800800080008000000049
:10545C0001000D000E000000000000000000000024
:10546C0000008000800080008000800080008000B0
:10547C0000000C000C000000000000000000000008
:10548C0000000600180060018006001800200000D3
:10549C000007F0080810041004080807F0000000CA
:1054AC0000080408041FFC000400040000000000B5
:1054BC00000E0C10141024104411840E0C0000006B
:1054CC00000C1810041104110412880C7000000058
:1054DC000000E00320042408241FFC00240000002A
:1054EC00001F981084110411041088107000000023
:1054FC000007F008881104110418880070000000DF
:10550C00001C00100010FC13001C00100000000018
:10551C00000E3811441084108411440E3800000021
:10552C00000700088C10441044088807F0000000A5
:10553C000000000000030C030C0000000000000041
:10554C000000000001010600000000000000000047
:10555C000000800140022004100808100400000222
:10556C002002200220022002200220022000000043
:10557C000010040808041002200140008000000004
:10558C00000E001200100C106C10800F00000003B5
:10559C00E00C1813E4142417C4082807D0000000EA
:1055AC0004003C03C41C40074000E4001C00041031
:1055BC00041FFC1104110411040E88007000000378
:1055CC00E00C1810041004100410081C100000103B
:1055DC00041FFC100410041004080807F00000104D
:1055EC00041FFC1104110417C41004081800001047
:1055FC00041FFC1104110017C01000080000000368
:10560C00E00C181004100410441C7800400000102A
:10561C00041FFC10840080008010841FFC10040008
:10562C0000100410041FFC10041004000000000003
:10563C00030001100110011FFE10001000000010EB
:10564C00041FFC110403801464181C1004000010C7
:10565C00041FFC1004000400040004000C000010E3
:10566C00041FFC1F0000FC1F001FFC100400001096
:10567C00041FFC0C04030000E010181FFC100007B2
:10568C00F00808100410041004080807F0000010BB
:10569C00041FFC10841080108010800F0000000785
:1056AC00F0081810241024101C080A07F20000102F
:1056BC00041FFC1104110011C011300E0C00040069
:1056CC00000E1C11041084108410441C38000018A7
:1056DC0000100010041FFC10041000180000001033
:1056EC00001FF810040004000410041FF810001030
:1056FC00001E0011E0001C007013801C0010001F25
:10570C00C0103C00E01F0000E0103C1FC000001067
:10571C0004180C163401C001C01634180C100410F7
:10572C00001C00130400FC13041C001000000008F3
:10573C0004101C1064108413041C041018000000C6
:10574C0000000000007FFE4002400240020000000A
:10575C000030000C0003800060001C0003000000FF
:10576C00004002400240027FFE00000000000000EA
:10577C00000000200040004000400020000000001D
:10578C000100010001000100010001000100010005
:10579C00004000400020000000000000000000005D
:1057AC00000098012401440144014400FC00041051
:1057BC00001FFC0088010401040088007000000038
:1057CC00000070008801040104010400880000003E
:1057DC0000007000880104010411081FFC00040083
:1057EC000000F8014401440144014400C8000000D9
:1057FC0000010401040FFC11041104110018000035
:10580C000000D601290129012901C9010600001057
:10581C00041FFC008401000100010400FC000400D2
:10582C00000104190419FC0004000400000000002D
:10583C0000000300010101190119FE000000001015
:10584C00041FFC0024004001B4010C010400000002
:10585C0000100410041FFC000400040000000001F0
:10586C000401FC0104010001FC0104010000FC0125
:10587C000401FC008401000100010400FC00040090
:10588C000000F8010401040104010400F800000107
:10589C000101FF0085010401040088007000000074
:1058AC00000070008801040104010501FF000101E2
:1058BC0004010401FC0084010401000180000000CB
:1058CC000000CC01240124012401240198000000D3
:1058DC00000100010007F8010401040000000001B0
:1058EC000001F8000400040004010801FC0004019C
:1058FC000001800170000C001001600180010001AA
:10590C00F0010C003001C00030010C01F00100006E
:10591C00000104018C00740170018C010400000171
:10592C000101810171000E0018016001800100006D
:10593C00000184010C013401440184010C000000BD
:10594C000000000000000001003EFC40024002008C
:10595C0000000000000000FFFF000000000000003D
:10596C0000400240023EFC0100000000000000006C
:10597C0000600080008000400040002000200023D8
:10598C002D302B2000686C4C00656667454647003F
:10599C003031323334353637383941424344454659
:1059AC0000303132333435363738396162636465EF
:0459BC006600000081
:0459C00015020008C4
:0459C400F1010008E5
:1059C800B80BB80B0024F400010000001000000020
:1059D800AAAAAAAA180000200000000000000000DF
:1059E80000000000000000000000000000000000AF
:1059F800000000000000000000000000000000009F
:105A0800000000000000000000000000000000008E
:105A1800000000000000000000000000000000007E
:105A2800000000000000000000000000000000006E
:085A3800000000000000000066
:0400000508000C31B2
:00000001FF
