:020000040800F2
:1000000000000120F1220008052200080722000854
:10001000092200080B2200080D2200080000000041
:10002000000000000000000000000000215B00084C
:100030000F22000800000000B15B00081122000838
:100040003923000839230008392300083923000820
:100050003923000839230008392300083923000810
:100060003923000839230008392300083923000800
:1000700039230008392300083923000839230008F0
:1000800039230008392300083923000839230008E0
:1000900039230008392300083923000839230008D0
:1000A00039230008392300083923000839230008C0
:1000B00039230008392300082922000839230008C1
:1000C00039230008392300083923000839230008A0
:1000D0003923000839230008392300083522000895
:1000E0003923000839230008392300083923000880
:1000F0003923000839230008392300083923000870
:10010000392300083923000839230008392300085F
:10011000392300083923000839230008392300084F
:10012000392300083923000839230008392300083F
:1001300000000000000000000000000000000000BF
:1001400000000000000000000000000000000000AF
:10015000000000000000000000000000000000009F
:10016000000000000000000000000000000000008F
:10017000000000000000000000000000000000007F
:10018000000000000000000000000000000000006F
:10019000000000000000000000000000000000005F
:1001A000000000000000000000000000000000004F
:1001B000000000000000000000000000000000003F
:1001C000000000000000000000000000000000002F
:1001D000000000000000000000000000000000001F
:0401E0005FF8E0F1F3
:1001F00010B5054C237833B9044B13B10448AFF361
:1002000000800123237010BDE401002000000000E5
:100210000C9F000808B5034B1BB103490348AFF31B
:10022000008008BD00000000E80100200C9F0008CD
:10023000034613F8012B002AFBD1181A0138704726
:1002400081F0004102E000BF83F0004330B54FEA87
:1002500041044FEA430594EA050F08BF90EA020FF4
:100260001FBF54EA000C55EA020C7FEA645C7FEA87
:10027000655C00F0E2804FEA5454D4EB5555B8BFAA
:100280006D420CDD2C4480EA020281EA030382EA1B
:10029000000083EA010180EA020281EA0303362DAD
:1002A00088BF30BD11F0004F4FEA01314FF4801C80
:1002B0004CEA113102D0404261EB410113F0004F92
:1002C0004FEA03334CEA133302D0524263EB430349
:1002D00094EA050F00F0A780A4F10104D5F1200EE7
:1002E0000DDB02FA0EFC22FA05F2801841F1000142
:1002F00003FA0EF2801843FA05F359410EE0A5F116
:1003000020050EF1200E012A03FA0EFC28BF4CF046
:10031000020C43FA05F3C01851EBE37101F00045FC
:1003200007D54FF0000EDCF1000C7EEB00006EEB09
:100330000101B1F5801F1BD3B1F5001F0CD3490893
:100340005FEA30004FEA3C0C04F101044FEA4452EA
:1003500012F5800F80F09A80BCF1004F08BF5FEA71
:10036000500C50F1000041EB045141EA050130BD51
:100370005FEA4C0C404141EB0101013C28BFB1F563
:10038000801FE9D291F0000F04BF01460020B1FAAE
:1003900081F308BF2033A3F10B03B3F120020CDA81
:1003A0000C3208DD02F1140CC2F10C0201FA0CF05F
:1003B00021FA02F10CE002F11402D8BFC2F1200CC4
:1003C00001FA02F120FA0CFCDCBF41EA0C0190407A
:1003D000E41AA2BF01EB0451294330BD6FEA0404C3
:1003E0001F3C1CDA0C340EDC04F11404C4F12002AE
:1003F00020FA04F001FA02F340EA030021FA04F3C0
:1004000045EA030130BDC4F10C04C4F1200220FA16
:1004100002F001FA04F340EA0300294630BD21FA54
:1004200004F0294630BD94F0000F83F4801306BF1A
:1004300081F480110134013D4EE77FEA645C18BF0E
:100440007FEA655C29D094EA050F08BF90EA020FA5
:1004500005D054EA000C04BF1946104630BD91EA9D
:10046000030F1EBF0021002030BD5FEA545C05D1A0
:100470004000494128BF41F0004130BD14F58004DF
:100480003CBF01F5801130BD01F0004545F0FE4153
:1004900041F470014FF0000030BD7FEA645C1ABF88
:1004A000194610467FEA655C1CBF0B46024650EABF
:1004B000013406BF52EA033591EA030F41F40021EB
:1004C00030BD00BF90F0000F04BF0021704730B571
:1004D0004FF4806404F132044FF000054FF0000146
:1004E00050E700BF90F0000F04BF0021704730B507
:1004F0004FF4806404F1320410F0004548BF4042DC
:100500004FF000013EE700BF42004FEAE2014FEA30
:1005100031014FEA02701FBF12F07F4393F07F4F0B
:1005200081F06051704732F07F4208BF704793F00E
:100530007F4F04BF41F40021704730B54FF4607421
:1005400001F0004521F000411CE700BF50EA010224
:1005500008BF704730B54FF000050AE050EA0102CD
:1005600008BF704730B511F0004502D5404261EB3D
:1005700041014FF4806404F132045FEA915C3FF47E
:10058000D8AE4FF003025FEADC0C18BF03325FEA1B
:10059000DC0C18BF033202EBDC02C2F1200300FACC
:1005A00003FC20FA02F001FA03FE40EA0E0021FAF1
:1005B00002F11444BDE600BF70B54FF0FF0C4CF4DF
:1005C000E06C1CEA11541DBF1CEA135594EA0C0F91
:1005D00095EA0C0F00F0DEF82C4481EA030621EACC
:1005E0004C5123EA4C5350EA013518BF52EA033507
:1005F00041F4801143F4801338D0A0FB02CE4FF0B9
:100600000005E1FB02E506F00042E0FB03E54FF0E8
:100610000006E1FB03569CF0000F18BF4EF0010EE0
:10062000A4F1FF04B6F5007F64F5407404D25FEADC
:100630004E0E6D4146EB060642EAC62141EA55518F
:100640004FEAC52040EA5E504FEACE2EB4F1FD0CD1
:1006500088BFBCF5E06F1ED8BEF1004F08BF5FEA4F
:10066000500E50F1000041EB045170BD06F0004601
:1006700046EA010140EA020081EA0301B4EB5C04AE
:10068000C2BFD4EB0C0541EA045170BD41F48011A6
:100690004FF0000E013C00F3AB8014F1360FDEBFCB
:1006A000002001F0004170BDC4F10004203C35DAA7
:1006B0000C341BDC04F11404C4F1200500FA05F32A
:1006C00020FA04F001FA05F240EA020001F00042CB
:1006D00021F0004110EBD37021FA04F642EB060141
:1006E0005EEA430E08BF20EAD37070BDC4F10C046B
:1006F000C4F1200500FA04F320FA05F001FA04F22F
:1007000040EA020001F0004110EBD37041F100011A
:100710005EEA430E08BF20EAD37070BDC4F1200525
:1007200000FA05F24EEA020E20FA04F301FA05F28D
:1007300043EA020321FA04F001F0004121FA04F235
:1007400020EA020000EBD3705EEA430E08BF20EA05
:10075000D37070BD94F0000F0FD101F0004640003F
:1007600041EB010111F4801F08BF013CF7D041EAC1
:10077000060195F0000F18BF704703F000465200C5
:1007800043EB030313F4801F08BF013DF7D043EA96
:100790000603704794EA0C0F0CEA135518BF95EA4C
:1007A0000C0F0CD050EA410618BF52EA4306D1D1D3
:1007B00081EA030101F000414FF0000070BD50EAF2
:1007C000410606BF1046194652EA430619D094EA7C
:1007D0000C0F02D150EA013613D195EA0C0F05D166
:1007E00052EA03361CBF104619460AD181EA0301BA
:1007F00001F0004141F0FE4141F470014FF0000072
:1008000070BD41F0FE4141F4780170BD70B54FF00C
:10081000FF0C4CF4E06C1CEA11541DBF1CEA13558C
:1008200094EA0C0F95EA0C0F00F0A7F8A4EB05046E
:1008300081EA030E52EA03354FEA013100F0888065
:100840004FEA03334FF0805545EA131343EA12632E
:100850004FEA022245EA111545EA10654FEA0026E3
:100860000EF000419D4208BF964244F1FD0404F59C
:10087000407402D25B084FEA3202B61A65EB0305F8
:100880005B084FEA32024FF480104FF4002CB6EBB5
:10089000020E75EB030E22BFB61A754640EA0C0035
:1008A0005B084FEA3202B6EB020E75EB030E22BF75
:1008B000B61A754640EA5C005B084FEA3202B6EBB6
:1008C000020E75EB030E22BFB61A754640EA9C0075
:1008D0005B084FEA3202B6EB020E75EB030E22BF45
:1008E000B61A754640EADC0055EA060E18D04FEA03
:1008F000051545EA16754FEA06164FEAC30343EAA3
:1009000052734FEAC2025FEA1C1CC0D111F4801F6F
:100910000BD141EA00014FF000004FF0004CB6E768
:1009200011F4801F04BF01430020B4F1FD0C88BF07
:10093000BCF5E06F3FF6AFAEB5EB030C04BFB6EB12
:10094000020C5FEA500C50F1000041EB045170BD05
:100950000EF0004E4EEA113114EB5C04C2BFD4EB32
:100960000C0541EA045170BD41F480114FF0000EB6
:10097000013C90E645EA060E8DE60CEA135594EA32
:100980000C0F08BF95EA0C0F3FF43BAF94EA0C0F35
:100990000AD150EA01347FF434AF95EA0C0F7FF4AA
:1009A00025AF104619462CE795EA0C0F06D152EAFE
:1009B00003353FF4FDAE1046194622E750EA4106E2
:1009C00018BF52EA43067FF4C5AE50EA41047FF4F3
:1009D0000DAF52EA43057FF4EBAE12E74FF0FF3C58
:1009E00006E000BF4FF0010C02E000BF4FF0010C29
:1009F0004DF804CD4FEA410C7FEA6C5C4FEA430CA2
:100A000018BF7FEA6C5C1BD001B050EA410C0CBFF0
:100A100052EA430C91EA030F02BF90EA020F002052
:100A2000704710F1000F91EA030F58BF994208BFB9
:100A300090422CBFD8176FEAE37040F00100704776
:100A40004FEA410C7FEA6C5C02D150EA013C07D1CD
:100A50004FEA430C7FEA6C5CD6D152EA033CD3D018
:100A60005DF8040B704700BF8446104662468C4612
:100A70001946634600E000BF01B5FFF7B7FF002845
:100A800048BF10F1000F01BD4DF808EDFFF7F4FF6E
:100A90000CBF012000205DF808FB00BF4DF808EDF9
:100AA000FFF7EAFF34BF012000205DF808FB00BF1C
:100AB0004DF808EDFFF7E0FF94BF012000205DF83E
:100AC00008FB00BF4DF808EDFFF7CEFF94BF0120F3
:100AD00000205DF808FB00BF4DF808EDFFF7C4FFEC
:100AE00034BF012000205DF808FB00BF4FEA410C35
:100AF0007FEA6C5C02D150EA013C0AD14FEA430C18
:100B00007FEA6C5C02D152EA033C02D14FF0000054
:100B100070474FF0010070474FEA410212F5001292
:100B200015D211D56FF47873B3EB625212D94FEA34
:100B3000C12343F0004343EA505311F0004F23FA1E
:100B400002F018BF404270474FF00000704750EA73
:100B5000013005D111F0004008BF6FF00040704730
:100B60004FF00000704700BF4A0011D212F500128A
:100B700011D20DD56FF47873B3EB62520ED44FEAF5
:100B8000C12343F0004343EA505323FA02F0704775
:100B90004FF00000704750EA013002D14FF0FF30B3
:100BA00070474FF0000070474FEA4102B2F1E04356
:100BB00024BFB3F5001CDCF1FE5C0DD901F0004C44
:100BC0004FEAC0024CEA5070B2F1004F40EB830094
:100BD00008BF20F00100704711F0804F21D113F1C0
:100BE0003872BCBF01F00040704741F480114FEAF9
:100BF0005252C2F11802C2F1200C10FA0CF320FA82
:100C000002F018BF40F001004FEAC1234FEAD3239E
:100C100003FA0CFC40EA0C0023FA02F34FEA430308
:100C2000CCE77FEA625307D150EA01331EBF4FF091
:100C3000FE4040F44000704701F0004040F0FE40AC
:100C400040F40000704700BF80F0004002E000BFA9
:100C500081F0004142001FBF5FEA410392EA030FA7
:100C60007FEA226C7FEA236C6AD04FEA1262D2EBF1
:100C70001363C1BFD218414048404140B8BF5B42F6
:100C8000192B88BF704710F0004F40F4000020F08F
:100C90007F4018BF404211F0004F41F4000121F0A5
:100CA0007F4118BF494292EA030F3FD0A2F10102EF
:100CB00041FA03FC10EB0C00C3F1200301FA03F12D
:100CC00000F0004302D5494260EB4000B0F5000F50
:100CD00013D3B0F1807F06D340084FEA310102F10F
:100CE0000102FE2A51D2B1F1004F40EBC25008BFC1
:100CF00020F0010040EA03007047490040EB00008B
:100D0000013A28BFB0F5000FEDD2B0FA80FCACF18B
:100D1000080CB2EB0C0200FA0CF0AABF00EBC250B8
:100D200052421843BCBFD0401843704792F0000FA6
:100D300081F4000106BF80F400000132013BB5E7F9
:100D40004FEA41037FEA226C18BF7FEA236C21D06F
:100D500092EA030F04D092F0000F08BF08467047D4
:100D600090EA010F1CBF0020704712F07F4F04D1A2
:100D7000400028BF40F00040704712F100723CBFB5
:100D800000F50000704700F0004343F0FE4040F4DF
:100D9000000070477FEA226216BF08467FEA23639D
:100DA0000146420206BF5FEA412390EA010F40F488
:100DB000800070474FF0000304E000BF10F00043D4
:100DC00048BF40425FEA000C08BF704743F09643BB
:100DD00001464FF000001CE050EA010208BF7047D6
:100DE0004FF000030AE000BF50EA010208BF70475D
:100DF00011F0004302D5404261EB41015FEA010C72
:100E000002BF84460146002043F0B64308BFA3F169
:100E10008053A3F50003BCFA8CF2083AA3EBC2534B
:100E200010DB01FA02FC634400FA02FCC2F120026A
:100E3000BCF1004F20FA02F243EB020008BF20F0A1
:100E40000100704702F1200201FA02FCC2F1200207
:100E500050EA4C0021FA02F243EB020008BF20EAFC
:100E6000DC7070474FF0FF0C1CEAD0521EBF1CEA2A
:100E7000D15392EA0C0F93EA0C0F6FD01A4480EA18
:100E8000010C400218BF5FEA41211ED04FF0006301
:100E900043EA501043EA5111A0FB01310CF000402D
:100EA000B1F5000F3EBF490041EAD3715B0040EA53
:100EB000010062F17F02FD2A1DD8B3F1004F40EB23
:100EC000C25008BF20F00100704790F0000F0CF0F6
:100ED000004C08BF49024CEA502040EA51207F3ABA
:100EE000C2BFD2F1FF0340EAC250704740F4000095
:100EF0004FF00003013A5DDC12F1190FDCBF00F086
:100F000000407047C2F10002410021FA02F1C2F133
:100F1000200200FA02FC5FEA310040F1000053EACF
:100F20004C0308BF20EADC70704792F0000F00F01D
:100F3000004C02BF400010F4000F013AF9D040EA23
:100F40000C0093F0000F01F0004C02BF490011F4B7
:100F5000000F013BF9D041EA0C018FE70CEAD153B5
:100F600092EA0C0F18BF93EA0C0F0AD030F0004C35
:100F700018BF31F0004CD8D180EA010000F00040E9
:100F8000704790F0000F17BF90F0004F084691F0A7
:100F9000000F91F0004F14D092EA0C0F01D14202E1
:100FA0000FD193EA0C0F03D14B0218BF084608D1AA
:100FB00080EA010000F0004040F0FE4040F40000F4
:100FC000704740F0FE4040F4400070474FF0FF0C87
:100FD0001CEAD0521EBF1CEAD15392EA0C0F93EACE
:100FE0000C0F69D0A2EB030280EA010C49024FEA20
:100FF000402037D04FF0805343EA111143EA1013D9
:101000000CF000408B4238BF5B0042F17D024FF490
:10101000000C8B4224BF5B1A40EA0C00B3EB510F6B
:1010200024BFA3EB510340EA5C00B3EB910F24BF54
:10103000A3EB910340EA9C00B3EBD10F24BFA3EBD9
:10104000D10340EADC001B0118BF5FEA1C1CE0D1A1
:10105000FD2A3FF650AF8B4240EBC25008BF20F054
:10106000010070470CF0004C4CEA50207F32C2BFA8
:10107000D2F1FF0340EAC250704740F400004FF045
:101080000003013A37E792F0000F00F0004C02BF76
:10109000400010F4000F013AF9D040EA0C0093F040
:1010A000000F01F0004C02BF490011F4000F013B9A
:1010B000F9D041EA0C0195E70CEAD15392EA0C0F02
:1010C00008D142027FF47DAF93EA0C0F7FF470AF3A
:1010D000084676E793EA0C0F04D14B023FF44CAF7D
:1010E00008466EE730F0004C18BF31F0004CCAD112
:1010F00030F000427FF45CAF31F000437FF43CAF4E
:101100005FE700BF4FEA4002B2F1FE4F0FD34FF04E
:101110009E03B3EB12620DD94FEA002343F0004364
:1011200010F0004F23FA02F018BF404270474FF012
:101130000000704712F1610F01D1420205D110F099
:10114000004008BF6FF0004070474FF0000070474C
:1011500008B54FF4FA7003F0A7FA04F015FFF8E7AA
:101160002DE9F047414F424E86B03C21384602F00F
:1011700012FA3C21304602F00EFA3B68DFF8089183
:101180005D6A3368DFF804815C6A01F019F9824610
:1011900001F016F9A0EB0A00B0F57A7FF8D93B68A8
:1011A0005A6A1B68D9064CD5954245DDAD1A32689E
:1011B000536A1268D20651D59C424ADDE41AD9F826
:1011C00000202C4901A805F0C1FC0A2101AA08460B
:1011D00004F074FF284B29491A6801A805F0B6FCF1
:1011E00014210A2001AA04F069FF2A46414601A8F9
:1011F00005F0ACFC1E210A2001AA04F05FFF224684
:10120000414601A805F0A2FC28210A2001AA04F009
:1012100055FF1B4B1B491A6801A805F097FC3221AA
:101220000A2001AA04F04AFF3B685D6A33685C6AE1
:1012300001F0C6F88246ABE7C2F57F42FF321544A3
:10124000B5E7954201DA551BB1E7C5F57F45FF3596
:10125000F5E7C3F57F43FF331C44B0E79C4201DA56
:101260001C1BACE7C4F57F44FF34F5E728210020C0
:101270004C200020289F000818020020329F000800
:1012800008020020499F0008442000203C9F0008DD
:10129000394D3A4CDFF8FCA02DE988480FF2C80917
:1012A000D9E9008932A7D7E90067284601F00AFA90
:1012B0000A21284601F09CF8284601F045F9304BF8
:1012C000DFF8D4B01860284601F00EFB204601F08C
:1012D000F9F90A21204601F08BF8204601F034F993
:1012E000CBF80000204601F0FFFA254B186800EB10
:1012F0008000FFF75FFD5146FFF768FE214B186045
:10130000FFF702F942464B4607F070FE32463B4675
:10131000FFF752F9FFF748FC07F042FEFFF7F2FE35
:10132000194B1860DBF8000000EB8000FFF742FD6E
:101330005146FFF74BFE154B1860FFF7E5F84246A4
:101340004B4607F053FE3B463246FFF735F9FFF7B1
:101350002BFC07F025FEFFF7D5FE0D4B18600A2089
:1013600003F0A2F9A1E700BFF853E3A59BC4F2BFC5
:10137000B0726891EDFC3D409420002014200020C4
:10138000341F002010200020442000201C020020D8
:101390001802002000F07F450002002010B50B4C21
:1013A00001222046042101F0C7FC2046002208212A
:1013B00001F0C2FC20460122202101F0BDFC2046A4
:1013C000BDE810400022102101F0B6BC0008014029
:1013D0000022034B1B685A625A6A8242FCD3704750
:1013E000801F00200000000073B5037F0446022B1D
:1013F0001FD142232E4E8DF8073001224FF6FF7386
:101400002C480DF1070102F0D3FE3378354693B92D
:101410000421204602F01AF9274B1860012333708B
:1014200023681A6A22F0A0021A621A6A42F02002A5
:101430001A6202B070BD012BFBD12046042102F0DC
:1014400005F91E4B24681860002363621A4B1C4A7E
:101450001B68984220D9C31A13601068FFF732F84E
:1014600011A3D3E90023FFF7A7F80022154BFFF7DC
:10147000A3F8FFF779FB144B186000232B70236A45
:1014800023F0A0032362236A2362104B1A68D368F7
:1014900023F00403D360CCE7DFD2C3F57F43FF33EF
:1014A0000344D9E7AFF300809CC420B07268A13F29
:1014B00014020020CC1F00200C020020100200208B
:1014C000040200200000E03F08020020801F0020EE
:1014D000412313B50F4C8DF807300DF107014FF67E
:1014E000FF7301220C4802F063FE01221021204606
:1014F00001F022FC0A20FFF76BFF0022102120469A
:1015000001F01AFC054B1A68D36843F00403D3605A
:1015100002B010BD00140140CC1F0020801F00202D
:1015200008B5FFF7D5FFC82003F0BEF8F9E70000C3
:101530000022024B1B685A639A637047381F0020D1
:1015400010B5044618B1BDE81040FFF727BF0246AA
:1015500004210A4801F0F0FB01220821074801F0AC
:10156000EBFB22462021054801F0E6FBBDE81040D8
:1015700001221021014801F0DFBB00BF000801403B
:10158000F8B504464426FFF709FF154D154F04B979
:10159000F8BD2B6864201E6403F086F84B222B688C
:1015A0004FF496701A6403F07FF840F674623B685B
:1015B000B4F57A7F5A6340F61C429A6308D94FF417
:1015C0007A7003F071F8A4F57A74FFF7B1FFDEE7E3
:1015D000204603F069F8BDE8F840FFF7A9BF00BF57
:1015E000C8200020381F0020F8B504460020FFF76F
:1015F000A7FF4426144D154F04B9F8BD2B6864208D
:101600001E6403F051F84B222B684FF496701A6455
:1016100003F04AF840F6D8623B68B4F57A7F5A6323
:1016200040F65D429A6308D94FF47A7003F03CF8B3
:10163000A4F57A74FFF77CFFDEE7204603F034F868
:10164000BDE8F840FFF774BFC8200020381F002015
:101650003922F8B50446134E4FF4967033680F469E
:101660001A6403F021F8104D8CB1FFF797FE4FF488
:1016700096722B685A6340F63C729A63384603F0C0
:1016800013F8FFF755FF4B2233681A64F8BD204664
:10169000FFF756FF4FF448722B685A6340F60A7200
:1016A000EBE700BFC8200020381F0020F8B5174F17
:1016B0000E4604463B68164DB8B164224FF496704E
:1016C0001A6402F0F1FFFFF769FE40F6AC522B6896
:1016D0005A634FF496629A63304602F0E5FFFFF7D3
:1016E00027FF4B223B681A64F8BD65224FF49670C1
:1016F0001A6402F0D9FF2046FFF722FF40F67A5223
:101700002B685A634FF4A062E5E700BFC8200020B1
:10171000381F002038B5124C23680F2B1ED9FFF755
:101720003DFE44220F4D64202B681A6402F0BCFF7A
:101730004B222B684FF496701A6402F0B5FF40F606
:101740007462094B1B685A6340F61C429A63236813
:101750000F2BFDD8BDE83840FFF7EABE38BD00BF0B
:1017600008020020C8200020381F00202DE9F84F73
:1017700000254FF000082C46DFF85C9000EB020AD1
:10178000A2EB010BAB4502DA2046BDE8F88F2846F4
:10179000FEF7A8FE02460B464046494607F026FCE7
:1017A00006460F461AF8010901353038FEF79AFE51
:1017B00032463B46FEF700FF064620460F46FEF740
:1017C00081FE02460B4630463946FEF73FFDFFF7E5
:1017D000CBF90446D6E700BF00002440F8B5324DEF
:1017E000324E31490122324802F0ADFE0146002856
:1017F000F7D12B780D2BF4D12870307014222D489E
:1018000004F03CFD2A4C2B4F01222946204602F0D1
:101810009AFE2A7830B90D2A06D03378FA5401336B
:101820003370F1E70D2AEFD10023224C2B7023787F
:10183000702B36D013D8642B25D0692B31D0612B77
:10184000CFD1052202212046FFF790FF01466078A4
:10185000A0F1660250425041FFF7FAFEC1E7732B38
:1018600009D0772BBDD1042201212046FFF77EFF4E
:10187000FFF786FEB5E7042201212046FFF776FF39
:10188000FFF7B2FEADE7052202212046FFF76EFF0B
:1018900001466078A0F1660358425841FFF706FF01
:1018A0009FE7FFF737FF9CE7150200201602002094
:1018B000CC1F00201421002010B596B0102200216A
:1018C0000FA804F0DBFC1422002101A804F0D6FCD0
:1018D000182200210DEB020004F0D0FC02244FF48A
:1018E000803301220021CDE90C23CDE913434FF4CD
:1018F000E0130CA80E911092159301F02FFA08B185
:1019000072B6FEE70F23CDE901344FF480630390F4
:10191000CDE90430214601A801F0F6FB08B172B60A
:10192000FEE74FF4004306A80694089301F0A8FCD4
:1019300008B172B6FEE716B010BD00002DE9F04107
:1019400010269CB000F01EFDFFF7B6FF32460021C6
:1019500013A804F093FCA24B4FF4BC619A69A14810
:1019600042F040029A619A69002502F04002019219
:10197000019A9A69012742F004029A619A69022445
:1019800002F004020292029A9A694FF0030842F0B0
:1019900020029A619A6902F020020392039A9A69DE
:1019A00032439A619A6932400492049A9A6942F0E9
:1019B00008029A619B69002203F008030593059BC6
:1019C00001F0BAF900223C21874801F0B5F9002264
:1019D0003146864801F0B0F94FF4BC63814813A941
:1019E000CDE91337CDE9155401F0BCF83C237E480E
:1019F00013A9CDE913371595CDF8588001F0B2F849
:101A00007A4813A9CDE91554CDE9136701F0AAF876
:101A10003246294608A804F031FC1C2229460CA8AD
:101A2000CDE9065504F02AFC2022294613A804F02B
:101A300025FC6F4C6F4B2046C4E9003541F61F432F
:101A4000C4E90555C4E90335A56001F007FF08B1F5
:101A500072B6FEE74FF48053204608A9089302F0BF
:101A600029F908B172B6FEE7204601F023FF08B15C
:101A700072B6FEE7CDE9060006A9204602F094FA08
:101A8000024608B172B6FEE76023CDE90E00CDE94B
:101A90000C30CDE9100012900CA9204601F0EEFFA9
:101AA00008B172B6FEE7042220460CA901F0E6FF59
:101AB00008B172B6FEE74FF40053CDE91300CDE94B
:101AC000150017901A9013A92046189302F0A2FA55
:101AD00008B172B6FEE74FF08043474CCDE90C00E9
:101AE000C4E900304FF6FF73C4E903300523CDE9A4
:101AF0001380CDE91570CDE91730CDE91970A060DC
:101B0000A06113A920461B9301F02CFF08B172B607
:101B1000FEE7CDE90C000CA9204602F045FA044688
:101B200008B172B6FEE70146324608A804F0A6FBEB
:101B30001C2221460CA8CDE9064404F09FFB20227C
:101B4000214613A804F09AFB4FF4B4632B482C4DA4
:101B50008460C0E900534FF47A73C0E903348023F2
:101B60004461836101F07AFE08B172B6FEE74FF47A
:101B70008053224808A9089302F09CF808B172B675
:101B8000FEE71E4801F096FE08B172B6FEE7CDE909
:101B9000060006A9194802F007FA08B172B6FEE776
:101BA0006023CDE91000CDE90C300E9012900C228C
:101BB00012480CA901F062FF08B172B6FEE74FF4BB
:101BC0000053CDE91300CDE9150017901A9013A921
:101BD0000A48189302F01EFA044698B172B6FEE75E
:101BE00000100240001801400008014000140140AC
:101BF000381F00200034014028210020C820002088
:101C0000002C0140714800F07FFA4FF4E133704836
:101C10007049C0E90244C0E900130C230461C0E923
:101C20000534C46102F096FA08B172B6FEE70125E8
:101C30004FF46026684C694BCDE913001590A06005
:101C400020756060204623602573E661256100F001
:101C5000C1FD08B172B6FEE7159013A92046CDE983
:101C6000135500F075FC08B172B6FEE75C4C5D4B95
:101C7000CDE913001590A0602073207560602046A8
:101C80002360E661256100F0A5FD08B172B6FEE7AC
:101C9000CDE91305159013A9204600F059FC08B1B1
:101CA00072B6FEE700241022214613A8CDE90C44A9
:101CB00004F0E4FA47234C4D4C4A2846C5E900237A
:101CC0004FF6FE73AC60C5E90334AC6101F01EFE53
:101CD00008B172B6FEE7CDE90C000CA9284602F067
:101CE00063F908B172B6FEE701261390CDE91460DE
:101CF00016900422284613A901F04EFF08B172B6CF
:101D0000FEE73B4C3B4BCDE90C00C4E900304FF6FD
:101D1000FF73C4E903300323CDE913300A23CDE96F
:101D20001560CDE91730CDE91960A060A06113A955
:101D300020461B9301F016FE08B172B6FEE7CDE90E
:101D40000C000CA9204602F02FF9044608B172B627
:101D5000FEE704F0D3F90421284602F0ADF821464D
:101D6000254802F0A7F80421234802F0A3F80C212B
:101D7000164802F09FF802F0FFFB21461F4A204858
:101D800002F036FC1F4B214618601F4A1F4802F024
:101D90002FFC1F4B214618601E4A1F4802F028FCEA
:101DA0001E4B214618601E4A1E4802F021FC1E4BA5
:101DB00021461E4A18601E4802F01AFC1D4B18608E
:101DC00002F0F6FB20461CB0BDE8F081C8200020E0
:101DD000CC1F002000480040942000200024014037
:101DE0001420002000280140801F0020000800402F
:101DF0004C20002000040040381F002024A00008D0
:101E000051110008301F0020DC9F0008DD1700087A
:101E1000C81F0020949F000861110008482000207E
:101E200000A000082115000874210020B89F0008B8
:101E3000911200081021002070470000114B07B5D7
:101E40009A690F2142F001029A619A696FF00100CC
:101E500002F001020092009ADA6942F08052DA61DF
:101E6000DB69002203F080530193019B00F068FDC1
:101E7000054A536823F0E06343F08063536003B086
:101E80005DF804FB0010024000000140102210B574
:101E9000044688B00DEB0200002104F0EFF923683E
:101EA0001B4A93421CD11B4B9A6942F400729A61FF
:101EB0009A6902F400720092009A9A6942F0040250
:101EC0009A619B6903F004030193019B022304932D
:101ED0000323114804A9059300F044FE08B010BD87
:101EE0000E4A9342FAD10B4B9A6942F480629A618E
:101EF0009A6902F480620292029A9A6942F004029C
:101F00009A619B6903F004030393039B0123DEE7BB
:101F10000024014000100240000801400028014058
:101F2000102210B5044688B00DEB0200002104F029
:101F3000A5F92368174A93420BD1174B9A6942F4CB
:101F400000629A619B6903F400630193019B08B0EE
:101F500010BD124A9342FAD10F4B11489A6904A955
:101F600042F400529A619A6902F400520292029A73
:101F70009A6942F010029A619B69C02203F0100333
:101F80000393039B0223CDE90423079300F0EAFDAA
:101F9000DDE700BF002C014000100240003401408A
:101FA0000010014010B504468AB01022002106A896
:101FB00004F064F92368B3F1804F39D103F5043399
:101FC000DA69002442F00102DA61DA69284802F095
:101FD00001020192019A9A6906A942F004029A61EB
:101FE0009A6902F004020292029A9A6942F0080287
:101FF0009A619B69089403F008030393039B4FF4D1
:102000000043CDE9063400F0ADFD0823194806A9C8
:10201000CDE90634089400F0A5FD174A536823F46F
:10202000407343F0E06343F4807353600AB010BD23
:10203000124A9342FAD1124B0D48DA6906A942F0CE
:102040000202DA61DA6902F002020492049A9A69E1
:1020500042F004029A619B69C02203F004030593D5
:10206000059B0023CDE90623089300F07BFDDDE707
:1020700000080140000C0140000001400004004045
:102080000010024010B5044686B01022002102A8BC
:1020900004F0F4F82268194B9A422CD103F502336C
:1020A000DA69002442F00402DA61DA69144802F0C5
:1020B00004020092009A9A6902A942F020029A61F1
:1020C0009B69049403F020030193019B4FF4005398
:1020D000CDE9023400F046FD0A4A1E20536805216E
:1020E00043F0E06343F480535360224600F028FC41
:1020F0001E2000F057FC06B010BD00BF00080040D5
:10210000001401400000014010B5044686B01022C2
:10211000002102A804F0B2F82268104B9A421BD1A9
:1021200003F564439A690E4842F040029A619B6944
:102130004FF4804203F040030193019B022302A964
:10214000CDE90223059300F00DFD064A536843F0E4
:10215000E06343F0C003536006B010BD002C0140A3
:10216000001801400000014010B5044686B010225E
:10217000002102A804F082F822681F4B9A4239D14C
:1021800003F5E433DA691D4842F48022DA61DA6942
:1021900002A902F480220092009A9A69002442F077
:1021A00010029A619B694FF4806203F0100301935F
:1021B000019B0223CDE902230323059300F0D2FC07
:1021C0004FF400630D4802A9CDE90234049400F0F5
:1021D000C9FC0B4A27205368052123F0300343F044
:1021E000E06343F010035360224600F0A9FB272070
:1021F00000F0D8FB06B010BD0048004000100140C0
:1022000000000140FEE7FEE7FEE7FEE7FEE770475D
:1022100008B500F0C9F803F005FA012803D0BDE8BD
:10222000084003F0E7BC08BD014801F029BA00BF2F
:10223000801F0020014802F06DB800BFCC1F0020B5
:102240000120704708B503F0E1FF162303604FF04B
:10225000FF3008BD08B503F0D9FF16230360FEE781
:1022600070B50E4614460025A54201DB204670BD20
:10227000AFF3008070550135F6E770B50E46144691
:102280000025A54201DB204670BD705DAFF30080E4
:102290000135F6E74FF0FF3070474FF40053002050
:1022A0004B60704701207047002070470B4B02467F
:1022B000196810B509B90A491960186809490A4C22
:1022C0000244091B8A4206D903F0A0FF0C230360D5
:1022D0004FF0FF3010BD1A60FCE700BF2002002065
:1022E000D0250020000001200004000070470000FD
:1022F0000C480D490D4A002302E0D458C450043361
:10230000C4188C42F9D30A4A0A4C002301E0136036
:102310000432A242FBD3FFF7E9FF03F07DFFFFF792
:102320000DFB704700000020E401002018AF0008FA
:10233000E4010020CC250020FEE7000038B50E4B5C
:10234000054618784FF47A73B3FBF0F30B4A106824
:10235000B0FBF3F000F034FB044658B90F2D09D858
:10236000024629464FF0FF3000F0EAFA2046044BBF
:102370001D6038BD0120FCE70400002000000020A3
:1023800008000020074A08B51368032043F0100333
:10239000136000F0C3FA0F20FFF7D0FFFFF74EFDE8
:1023A000002008BD00200240034A044B11681B783E
:1023B0000B441360704700BF782100200400002008
:1023C000014B1868704700BF7821002038B50446DB
:1023D000FFF7F6FF0546631C1EBF044B1B78E4188D
:1023E000FFF7EEFF431BA342FAD338BD04000020E1
:1023F000F7B5002504460E460195FFF7E1FF236877
:1024000007469A68D20508D50120A36A84F82450AB
:1024100043F02003A36203B0F0BD5A68D50503D48E
:10242000DB6A13F4700F40D0414B02201D6800F0AE
:102430009FFF22683F4B1169B5FBF0F519423E4BF7
:1024400054D1D0683D49084250D1116919425ED13A
:10245000D26803F16E431A4214BF292314235D434B
:10246000019BAB4225D2721C5CD0002E55D1019B42
:10247000AB4257D2A36A43F00403A36200230BE0EC
:10248000701C13D066B923681B6813F002030CD1CB
:10249000A26A42F00402A262032084F82430BAE760
:1024A000FFF78EFFC01BB042EDD822681368990772
:1024B000E6D56FF0120322681360A36A43F4007339
:1024C000A362936803F46023B3F5602F2ED1207BC1
:1024D00000282BD1A36A23F48073A362A36ADB04D0
:1024E00024D4A36A43F00103A36294E7116919425B
:1024F00003D1D168124B19420BD01169114B19420B
:1025000009D1D2681A4214BFFC235423A7E7292318
:10251000A5E75423A3E7FC23A1E7FFF751FFC01B66
:10252000B042A4D8019B0133019399E7002072E7E0
:102530000000002024499224922449122449920048
:1025400092244900499224000368D86C7047000027
:10255000002373B5019390F824300446012B6CD00E
:10256000012380F824304D680268062D086805EBC9
:10257000850322D81F26556B053B9E4025EA06059C
:1025800000FA03F32B43536309288B6800EB4005E3
:102590004FF0070129D9D6681E3DA94026EA01015E
:1025A000AB400B43D360A0F11003012B25D90020D1
:1025B000002384F8243002B070BD0C2D4FF01F05AD
:1025C00009D8166B233B9D4026EA050500FA03F364
:1025D0002B431363D8E7D66A413B9D4026EA0505A5
:1025E00000FA03F32B43D362CEE71069A94020EA37
:1025F0000101AB400B431361D9E7114B9A4216D14D
:1026000093681B02D3D49368102843F400039360AB
:10261000CDD10C4B0C4A1B68B3FBF2F20A23534397
:102620000193019B002BC2D0019B013BF8E7A36AF9
:10263000012043F02003A362BAE70220BBE700BFFA
:10264000002401400000002040420F00002337B565
:102650000193036804469A68D20702D5002003B0AC
:1026600030BD9A6842F001029A60144B144A1B680C
:10267000B3FBF2F30193019BE3B9FFF7A1FE05461B
:1026800023689B68DB07E9D4FFF79AFE401B02280A
:10269000F6D923689B6813F00103F1D1A26A0120E7
:1026A00042F01002A262E26A84F8243042F0010291
:1026B000E262D4E7019B013BDCE700BF00000020A1
:1026C00040420F0010B590F824300446012B54D03E
:1026D000012380F82430FFF7B9FF002849D1A36A0D
:1026E000274A23F4407323F0010343F48073A36269
:1026F0002368934204D123494A6812F4702F2ED1E3
:10270000A26A22F48012A2625A68520541BFA26AEC
:1027100022F4405242F48052A262A26A12F4805221
:102720001CBFE26A22F00602E262002284F8242042
:102730006FF002021A609A6802F46022B2F5602F0C
:1027400013D10F4A934205D1A2F58062526812F468
:10275000702F0AD19A6842F4A0029A6010BDA26A52
:1027600042F48012A2624A68CFE79A6842F480126B
:10277000F3E7002384F82430F0E70220EEE700BFFF
:10278000002801400024014038B5036804469A68D7
:10279000D10701D4002038BD9A6822F001029A6066
:1027A000FFF70EFE054623689B68DB07F2D5FFF7AF
:1027B00007FE401B0228F6D923689B68DA07F2D58A
:1027C000A36A012043F01003A362E36A43F001030C
:1027D000E362E0E7F8B50446002877D0836A23B9BE
:1027E000C36280F82430FFF751FB2046FFF7CCFF8F
:1027F000A36A13F010036BD1002869D1A26A374E87
:1028000022F4885222F0020242F00202A262D4E9CB
:102810000021B242E56904D1B5F5402F08BF4FF45D
:102820000025267B41EA46012943A568B5F5807F4E
:1028300037D0012D0CBF4FF4807C4FF0000C277D6A
:10284000012F06D17EBBA769013F4CEA473646F40B
:10285000006C5668B5F5807F26F4694646EA0C069A
:10286000566097681E4E06EA070646EA010696601D
:1028700001D0012D02D12369013B1B05D56A25F446
:1028800070052B43D3629268164B1340994213D1C3
:102890000023E362A36A23F0030343F00103A3626E
:1028A000F8BDAC46CBE7A66A46F02006A662E66A0B
:1028B00046F00106E662CCE7A36A23F0120343F078
:1028C0001003A362E36A43F00103E3620120E7E738
:1028D000A36A43F01003A362F8E700BF003C014085
:1028E000FDF7E1FFFE0E1FFF10B590F824300446FF
:1028F000012B11D0012380F82430FFF745FF38B9B0
:10290000A36A23F4885323F0010343F00103A36275
:10291000002384F8243010BD0220FCE7074903029D
:10292000CA6803F4E06322F4E0621204120C134359
:1029300043F0BF6343F40033CB60704700ED00E029
:10294000164B30B5DC68C4F30224C4F10703251D1F
:10295000042B28BF0423062D4FF0FF3598BF002419
:1029600005FA03F388BF033C21EA0303A34005FAF9
:1029700004F422EA0402002843EA0203ACBF00F197
:102980006040074A4FEA0313DBB2ABBF00F561407A
:1029900000F00F0080F80033135430BD00ED00E06C
:1029A00014ED00E0002808DB0123420900F01F00BD
:1029B00003FA00F0014B43F82200704700E100E009
:1029C0000138B0F1807F0AD2F021064B064A5860E8
:1029D00082F823100020072298601A6070470120B7
:1029E000704700BF10E000E000ED00E090F82130FB
:1029F000022B06D004238363002380F820300120BB
:102A0000704703681A6822F00E021A601A6822F0F2
:102A100001021A600123D0E90F218B4053604FF46B
:102A2000807303840020704708B590F82130022B92
:102A300003D004238363012008BD036843491A6857
:102A400022F00E021A601A6822F001021A60404A4F
:102A5000934241D98B4238D014318B4237D0143154
:102A60008B4236D014318B4223D014318B4223D089
:102A700014318B4223D0934224D002F562729342E8
:102A800023D01432934222D01432934221D01432F4
:102A9000934214BF4FF480334FF480532D4A536058
:102AA0004FF480730384436B002B4DD09847002074
:102AB000C2E74FF48053F1E74FF48033EEE74FF471
:102AC0008013EBE74FF08073E8E70123E6E710237C
:102AD000E4E74FF48073E1E78B422ED01E498B422E
:102AE0002DD014318B422CD014318B4219D014319B
:102AF0008B4219D014318B4219D093421AD0174A05
:102B000093421AD01432934219D01432934218D0FF
:102B10001432934214BF4FF480334FF48053104A61
:102B2000BDE74FF48053FAE74FF48033F7E74FF4F3
:102B30008013F4E74FF08073F1E70123EFE71023F0
:102B4000EDE74FF48073EAE7184675E708000240A6
:102B500080000240000402401C00024008040240C1
:102B6000000002402DE9F74F002216466B4F6C4BD8
:102B7000DFF8B4C1DFF8B4E10C6834FA06F502D12D
:102B800003B0BDE8F08F4FF0010808FA06F804EA38
:102B9000080538EA040440F082804C68032C07D80A
:102BA000013C022C00F28D80DFE804F09EA3A90016
:102BB000122C00F0A18074D8112C00F09780FF2D0A
:102BC00098BF82464FF00F0988BF00F1040A4FEA10
:102BD0008604DAF8008088BF203C09FA04FB28EA62
:102BE0000B0802FA04F448EA0404CAF80040D1F8D9
:102BF00004A01AF0805F52D0BC6926F0030844F0AC
:102C00000104BC61BC6908F1804804F0010401942E
:102C100008F5803806F0030B019C4FEA8B0BD8F8BF
:102C2000084009FA0BF924EA09093E4CA0426AD08F
:102C300004F58064A04268D004F58064A04266D0A8
:102C400004F58064A04264D004F58064A04262D0A0
:102C500060450CBF0524062404FA0BF444EA090479
:102C6000C8F808401C681AF4803F14BF2C43AC43DA
:102C70001C605C681AF4003F14BF2C43AC435C60DA
:102C80009C681AF4801F14BF2C43AC439C60DC6822
:102C90001AF4001F14BF254324EA0505DD60013640
:102CA0006AE774450DD018D8DFF884904C4508D0F9
:102CB00009F570294C4504D0A9F580194C457FF4DD
:102CC0007EAF8A68EAB1012A08BFC0F810804FF0D1
:102CD000080218BFC0F8148071E7DFF858904C451F
:102CE000EFD009F58039E9E7CA6868E7CA680432B5
:102CF00065E7CA68083262E7CA680C325FE70022FB
:102D00005DE704225BE70024A6E70124A4E7022490
:102D1000A2E70324A0E704249EE700BF00100240BE
:102D20000004014000080140001C01400000221086
:102D300000001210000031100AB10161704709044F
:102D4000FBE700000122014B1A60704720000E4291
:102D50000022014B1A60704720000E422DE9F3411A
:102D6000054638B30368DB0710D42B689F075ED491
:102D70002B68190700F195802B685A0700F1BF8076
:102D8000E869002840F02C81002029E08F4C63681E
:102D900003F00C03042B07D0636803F00C03082B2B
:102DA0000AD16368DE0307D523689C03DDD56B6811
:102DB000002BDAD1012013E06B68B3F5803F12D10C
:102DC000236843F480332360FFF7FAFA064623684A
:102DD0009803CAD4FFF7F4FA801B6428F7D90320BC
:102DE00002B0BDE8F0819BB9236823F480332360EF
:102DF000236823F480232360FFF7E2FA0646236862
:102E00009903B2D5FFF7DCFA801B6428F7D9E6E70F
:102E1000B3F5A02F236803D143F480232360CFE7C9
:102E200023F480332360236823F48023CBE7674CAB
:102E3000636813F00C0F07D0636803F00C03082BD2
:102E400010D16368DA030DD423689B0702D52B6980
:102E5000012BAFD123686A6923F0F80343EAC20368
:102E6000236085E72A695A4B6AB101221A60FFF78D
:102E7000A7FA064623689F07ECD4FFF7A1FA801B48
:102E80000228F7D9ABE71A60FFF79AFA06462368DB
:102E900098077FF56DAFFFF793FA801B0228F6D9EC
:102EA0009DE7AA69494E4B4BDAB101221A60FFF740
:102EB00087FA0446736A9B070DD54FF4FA52464BC6
:102EC0001B68B3FBF2F3019300BF019B5A1E0192F2
:102ED000002BF9D150E7FFF773FA001B0228E9D95C
:102EE0007DE71A60FFF76CFA0446736A9F077FF567
:102EF00043AFFFF765FA001B0228F6D96FE7334CA2
:102F0000E369D80024D40127E36943F08053E361E7
:102F1000E36903F080530093009B304E3368D9057A
:102F200018D5EB68012B26D1236A43F001032362F5
:102F3000FFF746FA41F288380646236A9B073FD5D9
:102F4000002F3FF41DAFE36923F08053E36117E7DF
:102F50000027E2E7336843F480733360FFF730FA09
:102F600080463368DA05DCD4FFF72AFAA0EB0800C4
:102F70006428F6D933E7ABB9236A41F2883823F0E5
:102F800001032362236A23F004032362FFF718FA84
:102F90000646236A9807D3D5FFF712FA801B4045EF
:102FA000F7D91CE7052B236A03D143F004032362FE
:102FB000BAE723F001032362236A23F00403B6E790
:102FC000FFF7FEF9801B4045B7D908E70010024023
:102FD0000000424280044242000000200070004095
:102FE0002A4B5A681C4602F00C02082A3DD00023E6
:102FF000274E022833602BD1FFF7E2F907462368FA
:1030000099011FD42B6AB3F5803F05D16268A96886
:1030100022F400320A436260696A62680B4322F458
:1030200074121343636001233360FFF7C9F9054647
:1030300023689A013FF5A8AEFFF7C2F9401B0228AA
:10304000F6D9CCE6FFF7BCF9C01B0228D7D9C6E6F3
:10305000FFF7B6F9054623689B017FF595AEFFF7AC
:10306000AFF9401B0228F6D9B9E601283FF4B8AE03
:103070005B682A6A03F4803191427FF49BAE6A6AEE
:1030800003F4701393423FF47FAE93E600100240C6
:103090006000424230B5184B87B002AC03F1100516
:1030A000224618685968083303C2AB421446F7D168
:1030B00040F201231149ADF804304B6803F00C02D3
:1030C000082A17D1C3F3834206A80244DB0312F88F
:1030D000102C0CD54B680A48C3F34043504306AA52
:1030E000134413F8143CB0FBF3F007B030BD0548AF
:1030F0005043FAE70248F8E760A0000800100240D9
:1031000000127A0000093D002DE9F0410D46044609
:1031100010B90120BDE8F081444A136803F00703A9
:103120008B4228D321688E0730D4CA0743D43F4A44
:10313000136803F00703AB4265D822683C4D12F0D8
:10314000040F6CD1130706D56B68226923F4605312
:1031500043EAC2036B60FFF79DFF6B68354AC3F318
:103160000313D35CD840344B1860344B1868FFF716
:10317000E5F80020CEE7136823F007030B43136044
:10318000136803F007038B42C3D1CBE7284B11F040
:10319000040F1EBF5A6842F4E0625A60080742BF3B
:1031A0005A6842F460525A605A68A06822F0F002ED
:1031B00002435A60B9E762681D4E012A33681AD18A
:1031C00013F4003FA5D0736841F2883823F003035D
:1031D00013437360FFF7F4F807467368626803F0FF
:1031E0000C03B3EB820FA2D0FFF7EAF8C01B4045F7
:1031F000F3D903208EE7022A02D113F0007FE1E722
:1032000013F0020FDEE7136823F007032B4313606C
:10321000136803F00703AB427FF47BAF8DE76B6865
:10322000E16823F4E0630B436B608BE7002002400E
:103230000010024048A00008000000200800002004
:10324000044B054A5B68C3F30223D35C034A10684E
:10325000D84070470010024058A00008000000202D
:10326000044B054A5B68C3F3C223D35C034A10686E
:10327000D84070470010024058A00008000000200D
:1032800003682DE9F341D907054620D5354CE3699C
:10329000DA0032D40127E36943F08053E361E36944
:1032A00003F080530193019B2F4E3368DB0526D535
:1032B000236A13F4407336D1236A6A6823F4407397
:1032C000134323621FB1E36923F08053E36128684D
:1032D000830706D52349AB684A6822F440421A4363
:1032E0004A6010F010001BD01E4A69695368002024
:1032F00023F480030B43536012E00027D4E73368C4
:1033000043F480733360FFF75BF880463368D80579
:10331000CED4FFF755F8A0EB08006428F6D90320B7
:1033200002B0BDE8F0816A6802F440729A42C3D0EC
:1033300001200E4A236A1060002023F440711060BF
:103340002162D907B8D5FFF73BF841F28838064625
:10335000236A9A07B0D4FFF733F8801B4045F7D9AA
:10336000DDE700BF00100240007000404004424210
:10337000034670B53C4A86B002AD02F110062C46F9
:1033800010685168083203C4B2422546F7D140F2B2
:103390000122082BADF804200AD8002B2ED0013BC7
:1033A000072B5FD8DFE803F032505E2D5E5E5E2DA6
:1033B000102B57D12D4A5168136813F080731DD01C
:1033C000C1F38343C90348BF516806A844BFC1F392
:1033D00040410918034444BF11F8141C24485268A2
:1033E0004CBFB0FBF1F0234813F8103C520200FB35
:1033F00003F303D403205B00B3FBF0F3184606B0DD
:1034000070BD06B0BDE87040FFF744BE40F2023127
:10341000164A136A1940B1F5817F20D003F4407336
:10342000B3F5007F07D1536A49F6404213F0020317
:1034300018BF1346E2E7B3F5407F13D113684FF28C
:10344000244213F40033F3E7FFF70AFF074B5B68EE
:10345000C3F3813301335B00B0FBF3F3CEE74FF4EA
:103460000043CBE70023C9E760A00008001002403A
:1034700000127A0000093D00036A70B523F00103D1
:103480000362036A446882690D6822F073022A436A
:103490008D6823F002032B430E4DA84202D00E4E3E
:1034A000B04210D1CE6823F008033343A84223F082
:1034B000040302D0084DA84205D1D1E9055624F4F1
:1034C000407435432C43446082614A68426303621E
:1034D00070BD00BF002C014000340140036A70B58C
:1034E00023F480730362036A4468C2690D6822F0A2
:1034F00073022A438D6823F4007343EA0523114DB8
:10350000A84203D005F50065A84214D1CD6823F484
:10351000006343EA05230B4D23F48063A84203D0E4
:1035200005F50065A84206D1D1E9055624F44054BA
:10353000354344EA05144460C2614A68C2630362C9
:1035400070BD00BF002C0140036A30B523F48053E6
:103550000362036A4468C2690D6822F4E64242EAE3
:1035600005228D6823F4005343EA0533084DA84231
:1035700003D005F50065A84204D14D6924F48044C8
:1035800044EA85144460C2614A680264036230BD43
:10359000002C01407047034630B590F83E2090F86B
:1035A0003F0093F8425093F84340D2B2C0B2EDB21C
:1035B000E4B2C1B9012A45D1012D45D1022283F8D7
:1035C0003E2083F842201A68116A21F0010111623D
:1035D000116A41F00101002011621A68136843F07A
:1035E0000103136030BD042911D101282AD1012C17
:1035F000F8D1022283F83F2083F843201A68116A29
:1036000021F010011162116A41F01001E3E7012A73
:1036100018D1012818D1012DE4D1012CE2D10222C8
:1036200083F83E2083F83F2083F8422083F843202C
:103630001A68116A21F001011162116A41F0010159
:103640001162DCE70120CDE71046CBE7082910D056
:1036500004D841B1042909D0002070470C29FBD1BE
:103660000368186C70470368586B70470368986B61
:1036700070470368D86B7047704770477047704752
:10368000036810B51A69044691070ED5DA689207E7
:103690000BD56FF002021A61012202779B699B072A
:1036A00077D0FDF7A1FE0023237723681A6950071E
:1036B00010D5DA6851070DD56FF004021A610222A5
:1036C00022779B69204613F4407F68D0FDF78CFE7B
:1036D0000023237723681A6912070FD5DA681007C9
:1036E0000CD56FF008021A6104222277DB692046AC
:1036F00099075AD0FDF778FE0023237723681A69CB
:10370000D20610D5DA68D0060DD56FF010021A6116
:1037100008222277DB69204613F4407F4BD0FDF767
:1037200063FE0023237723681A69D10708D5DA6876
:10373000D20705D56FF0010220461A61FFF79CFF02
:1037400023681A69100608D5DA68110605D56FF0E6
:10375000800220461A6100F084FC23681A69520630
:1037600008D5DA68500605D56FF0400220461A6188
:10377000FFF785FF23681A69910622D5DA68920659
:103780001FD56FF020022046BDE810401A6100F0FE
:1037900067BCFFF772FF2046FFF770FF83E7FFF774
:1037A0006CFF2046FFF76AFF92E7FFF766FF2046AF
:1037B000FFF764FFA0E7FFF760FF2046FFF75EFF1B
:1037C000AFE710BD244A0368904212D002F50062B0
:1037D00090420ED0B0F1804F0BD0A2F598329042BB
:1037E00007D002F58062904203D002F580629042D9
:1037F0001DD14A6823F070031343174A904212D038
:1038000002F5006290420ED0B0F1804F0BD0A2F5CD
:103810009832904207D002F58062904203D002F5C0
:103820008062904203D1CA6823F4407313434A690B
:1038300023F08003134303608B68C3620B688362C9
:10384000054B984203D003F50063984201D10B6900
:103850000363012343617047002C014010B5044607
:1038600030B390F83D3003F0FF021BB980F83C20E4
:10387000FEF756FB0223206884F83D30211DFFF738
:10388000A1FF0123002084F8463084F83E3084F8FC
:103890003F3084F8403084F8413084F8423084F876
:1038A000433084F8443084F8453084F83D3010BD0E
:1038B0000120FCE710B5044630B390F83D3003F02A
:1038C000FF021BB980F83C20FFF764FE022320684A
:1038D00084F83D30211DFFF775FF0123002084F897
:1038E000463084F83E3084F83F3084F8403084F825
:1038F000413084F8423084F8433084F8443084F80E
:10390000453084F83D3010BD0120FCE710B5044679
:1039100030B390F83D3003F0FF021BB980F83C2033
:10392000FEF7B0FB0223206884F83D30211DFFF72D
:1039300049FF0123002084F8463084F83E3084F8A3
:103940003F3084F8403084F8413084F8423084F8C5
:10395000433084F8443084F8453084F83D3010BD5D
:103960000120FCE7F8B50D46044600284DD090F83C
:103970003D3003F0FF021BB980F83C20FEF712FB3C
:103980000223214684F83D3051F8040B836823F468
:10399000804323F007038360FFF714FF20682B6840
:1039A00086688269A9681E43AB6922F4407222F0DE
:1039B000030241EA0323134323F47C422B69E969A0
:1039C0001B0143EA0123E968076A0B43296A22F0D5
:1039D000FC0243EA01331343696927F022026F684E
:1039E000866047EA011783611743012307620020BD
:1039F00084F8463084F83E3084F83F3084F8423012
:103A000084F8433084F83D30F8BD0120FCE7000025
:103A1000036A70B523F010030362036A4468826985
:103A20000D6822F4E64242EA05228D6823F0200365
:103A300043EA0513104DA84203D005F50065A842DE
:103A400014D1CD6823F0800343EA05130A4D23F017
:103A50004003A84203D005F50065A84206D1D1E98C
:103A6000055624F44064354344EA85044460826189
:103A70004A688263036270BD002C014038B590F83B
:103A80003C300446012B52D00123082A80F83C30F8
:103A90003CD006D8C2B1042A27D0002084F83C00CC
:103AA00038BD0C2AF9D10068FFF74EFD236809697B
:103AB000DA6942F40062DA61DA6922F48062DA617A
:103AC000DA6942EA012230E00068FFF7D5FC23689A
:103AD00009699A6942F008029A619A6922F004021F
:103AE0009A619A690A439A61D7E70068FFF790FFE5
:103AF000236809699A6942F400629A619A6922F41A
:103B000080629A619A6942EA0122ECE70068FFF755
:103B1000E5FC23680969DA6942F00802DA61DA69CA
:103B200022F00402DA61DA690A43DA61B5E70220B9
:103B3000B6E7000070B5046A164E24F00104046272
:103B4000B0428469056A21D006F50066B0421DD0F6
:103B5000B0F1804F1AD0A6F59836B04216D006F5CF
:103B60008066B04212D006F58066B0420ED044F0B6
:103B700001021B01DBB222F0F0021A4301F00A013C
:103B800025F00A0319438261016270BD24F0030429
:103B90002243EEE7002C0140F8B590F83C30044693
:103BA000012B0E46154679D0012380F83C30F3688E
:103BB000006806C975B9FFF7BDFF2368B1689A6947
:103BC00022F00C029A619A690A439A61002084F8F3
:103BD0003C00F8BD042DB66822D1056A090125F024
:103BE000100505628769D0F820E027F4407C1D03AA
:103BF0004CEA022C2CF4704CADB22EF0A00E01F069
:103C0000A00145EA0C0541EA0E0185610162836964
:103C100023F440638361836943EA06268661D5E71E
:103C2000082D056A1CD125F480750562C769056AEF
:103C300027F0030717431B010902DBB227F0F00747
:103C400025F4007501F400711F432943C761016227
:103C5000C36923F00C03C361C3691E43C661B5E7A2
:103C600025F480550562C569076A25F4407545EA63
:103C700002251B03090325F470459BB227F4005766
:103C800001F400512B433943C3610162C36923F43A
:103C90004063C361C36943EA0626DFE7022098E771
:103CA00010B584680A4324F47F4442EA0322224385
:103CB000826010BD70B590F83C300446012B4FF087
:103CC000020027D0012384F83D00206884F83C30AE
:103CD000836823F47F4323F0770383600B68602BB2
:103CE0004DD032D8402B62D015D8202B03D009D824
:103CF00033F0100208D1826822F07002134343F0BF
:103D0000070320E0302BF6D00123002084F83D305B
:103D100084F83C0070BD502BF6D14A68CE68016A29
:103D2000056A21F00A0125F00105056283690A434D
:103D300023F0F00343EA061383610262836823F0F1
:103D4000700343F057038360DEE7702B0CD0B3F5AC
:103D5000005FD9D1CB68D1E90121FFF7A1FF22682B
:103D6000936843F4804308E0CB68D1E90121FFF771
:103D700097FF2268936843F077039360C4E74D6828
:103D8000CE68016A21F0100101628269036A22F49F
:103D9000704223F0A00343EA051342EA063282612F
:103DA0000362836823F0700343F06703CBE74A683C
:103DB000CE68016A056A21F00A0125F00105056255
:103DC00083690A4323F0F00343EA06138361026226
:103DD000836823F0700343F04703B4E710B5012470
:103DE000036A01F01F018C4023EA04030362036AA3
:103DF0008A401A43026210BD10B5044629B990F8F2
:103E00003E30012B1DD0012032E0042907D190F86B
:103E10003F30012BF7D1022380F83F3014E008290E
:103E200007D190F84030012BEDD1022380F84030CB
:103E30000AE090F84130012BE5D1022380F84130AF
:103E400002E0022380F83E3001222068FFF7C6FF1F
:103E50002368154A93420CD014498B4209D0B3F120
:103E6000804F10D19A6802F00702062A16D100206E
:103E700010BD596C934241F400415964F2D00B4A91
:103E80009342EFD0EBE70A4A9342EBD002F580620F
:103E90009342E7D002F580629342E3D01A6842F081
:103EA00001021A60E3E700BF002C0140003401402A
:103EB00000040040FFF7A0BF10B5044600293AD126
:103EC00090F83E0094F84230C0B20128DBB266D1CF
:103ED000012B65D102232068002942D184F83E30AD
:103EE00084F84230C36843F00203C3600122FFF745
:103EF00075FF23682B4A934212D002F50062934269
:103F00000ED0B3F1804F0BD0A2F59832934207D078
:103F100002F58062934203D002F58062934204D19D
:103F20009A6802F00702062A03D01A6842F00102DA
:103F30001A60002034E0042905D190F83F0094F87D
:103F40004330C0B2C1E708290BBF90F8400094F895
:103F5000410094F8443094F845300CBFC0B2C0B270
:103F6000B3E7042907D184F83F3084F84330C368AD
:103F700043F00403B9E7082907D184F8403084F8F6
:103F80004430C36843F00803AFE70C2984F841309C
:103F900084F84530AAD1C36843F01003A5E7012097
:103FA00010BD00BF002C014030B590F83C300246F7
:103FB000012B4FF002002AD0136882F83D005C68A4
:103FC0000D6824F070042C4398685C60104CA34288
:103FD00012D004F50064A3420ED0B3F1804F0BD091
:103FE000A4F59834A34207D004F58064A34203D01B
:103FF00004F58064A34204D1496820F080000143A5
:1040000099600123002082F83D3082F83C0030BDE9
:10401000002C014090F83C30012B1FD0CB688A68FF
:1040200023F4407313434A6823F4806313430A68FC
:1040300023F4006313430A6923F4805313434A694A
:1040400023F400531343CA6923F4804313430268E3
:104050005364002380F83C301846704702207047B4
:10406000704770470368DA6822F49072DA605A6920
:1040700022F001025A61026B012A02BFDA6822F0C3
:104080001002DA60202380F83E300023036370477B
:1040900010B504460368C1681A6922F440520A4305
:1040A0001A6182680069D9680243606921F4B051DD
:1040B00021F00C0102430A43DA605A69A16922F433
:1040C00040720A435A610E4A934215D1FFF7C8F86D
:1040D00019234343626820689200B3FBF2F3642221
:1040E000B3FBF2F102FB11331B013233B3FBF2F3EA
:1040F00003EB0113836010BDFFF7A2F8E8E700BFF0
:1041000000380140F8B504460E4617461D462268A1
:10411000136836EA030301D1002014E06B1CF7D0CA
:1041200095B923680320DA6822F4D072DA605A69FC
:1041300022F001025A61202384F83D3084F83E3099
:10414000002384F83C30F8BDFEF73AF9C01B8542E5
:10415000DDD2E6E710B5044640B390F83D3003F0F9
:10416000FF021BB980F83C20FDF7FEFF24232268E4
:1041700084F83D30D368204623F40053D360FFF722
:1041800087FF236800201A6922F490421A615A6955
:1041900022F02A025A61DA6842F40052DA602023DF
:1041A000206484F83D3084F83E3010BD0120FCE7E7
:1041B0002DE9F843994690F83D300446202B0E46F1
:1041C000174648D1002944D0002A42D090F83C300C
:1041D000012B40D00123002580F83C3021230564C9
:1041E00080F83D30FEF7ECF8A3688046B3F5805FB9
:1041F000A784E78403D123690BB935461E46002303
:1042000084F83C30E38C9BB253B94B464246402184
:104210002046FFF777FF50B9202384F83D3007E0B0
:104220004B46424680212046FFF76CFF10B1032029
:10423000BDE8F88322684EB935F8023BC3F30803A2
:104240005360E18C013989B2E184DBE716F8013B68
:10425000F6E70120ECE70220EAE77047704708B56F
:104260000023406AC385C384FFF7F8FF08BD704789
:1042700013B590F83E30222B49D18168836AB1F59D
:10428000805F026833D10169002933D15268C2F3DB
:10429000080223F8022BC48D8362013CA4B2C485BA
:1042A0001CBB0368DA6822F02002DA60DA6822F4C4
:1042B0008072DA605A6922F001025A61202280F885
:1042C0003E20026B012A1FD10463DA6822F010023B
:1042D000DA601A68D20605D501941A6801925B6803
:1042E0000193019B818DFFF7C2FF002010E039B9D7
:1042F000016929B95268D2B21A70836A0133CAE7D8
:10430000526802F07F02F7E7FDF796FDEDE7022025
:1043100002B010BD036837B51A68044612F00F0FDB
:10432000D9685D6908D195065FD58D065DD503B066
:10433000BDE83040FFF79CBF05F0010001F4907527
:10434000054352D0D50705D5CB0542BF236C43F0BA
:1043500001032364550704D518B1236C43F002030D
:104360002364930704D518B1236C43F0040323643A
:10437000150707D501F0200303431EBF236C43F04C
:1043800008032364236C53B3920604D58B0602D52D
:104390002046FFF76DFF236820465B69256C03F01C
:1043A000400305F008051D431BD0FFF75BFE2368A3
:1043B0005A69550610D55A69A06B22F040025A611D
:1043C00050B1534B4363FEF72FFB40B1A06B436BDF
:1043D00003B0BDE8304018472046FFF73FFF03B069
:1043E00030BDFFF73BFF2564F9E7206B012855D16D
:1043F000D00653D5CD0651D5002101911A680192FE
:104400005A680192019A5A6912F040022AD0A06BB0
:104410000268526892B2002AE1D0A58D9542DED999
:10442000E2858269202A15D0DA6822F48072DA6087
:104430005A6922F001025A615A6922F040025A6117
:10444000202284F83E202163DA6822F01002DA602C
:10445000FEF7CCFAE38DA18DC91A89B22046FFF789
:1044600006FFBCE7E18D88B2E18D89B20029B6D0A4
:10447000A18D091A89B20029B1D0D86820F49070B2
:10448000D860586920F001005861202084F83E006F
:104490002263DA6822F01002DA60DFE7100626D520
:1044A0000D0624D594F83D20212A98D1A168226ACE
:1044B000B1F5805F16D12169A1B932F8021BC1F3B1
:1044C000080159602262E28C013A92B2E284002A29
:1044D00085D1DA6822F08002DA60DA6842F04002C0
:1044E000DA607CE7511C216212785A60EBE75006D3
:1044F0007FF575AF4A067FF572AFDA68204622F085
:104500004002DA60202384F83D30FFF7A6FE66E71C
:104510005F420008C2858285816203462222002014
:10452000186483F83C0083F83E201B68DA6842F484
:104530008072DA605A6942F001025A61DA6842F028
:104540002002DA60704770B490F83E60202E10D1DF
:1045500061B15AB190F83C40012C0AD0012480F896
:104560003C400024046370BCFFF7D4BF012070BC42
:1045700070470220FBE70000EFF3058313B16FF0F3
:1045800005007047EFF31083002BF8D1074B186834
:10459000022806D1EFF31183002BF0D14FF0FF304A
:1045A00070470028FAD101221A6070478004002069
:1045B00010B5EFF3058313B16FF0050010BDEFF3F5
:1045C0001084002CF8D1094B1A68022A06D1EFF3A7
:1045D0001183002BF0D14FF0FF30EFE7012AFAD121
:1045E00002221A6000F0A0FD2046E7E780040020C8
:1045F000F0B51446002287B00B460592EFF3058212
:1046000052BBEFF310823ABB264A1268022A02D14B
:10461000EFF3118202BBF8B100228DF81320002CB9
:1046200030D0216809B90DF11301A569002D08BF2B
:1046300018256A1E372AAC462AD86268D20727D4C2
:10464000666966B1B208D4E9027E57B1BEF15B0F6C
:1046500002D9246904B1EEB9059807B0F0BD8022F3
:10466000F1E7BEF1000FF7D12469002CF4D105ACBD
:10467000CDE900C492B200F02AFD01281CBF00233E
:104680000593E9E74FF0180C80220DF11301EEE7D6
:104690000020E2E7CDE90147009500F0E1FC05903C
:1046A000DAE700BF8004002008B5EFF3058313B1FB
:1046B0006FF0050008BDEFF31083002BF8D1074B16
:1046C0001B68022B03D1EFF31183002BF0D10028DC
:1046D000F0D000F07FFE0020ECE700BF8004002057
:1046E000034B0360034B0B6080231360704700BFD4
:1046F0002404002024020020034B0360034B0B60C2
:104700004FF48073136070478408002084040020F5
:104710004FF0FF3200F10803C0E902234360036158
:1047200000230360704700230361704743689A6861
:104730004B608A609A685160996003680861013330
:104740000360704730B50C68631C0AD103695A686E
:104750004A6091608B6059600368086101330360AF
:1047600030BD00F10802134652681568A542FAD917
:10477000EDE70369D0E901128A605160596881420E
:1047800008BF5A60002202611A68013A1A6018686C
:10479000704710B5044601F0D5F9A46B01F0F4F9A7
:1047A000B4FA84F0400910BDF8B51546026C044611
:1047B000866B52B9076847BB406800F043FF054667
:1047C000676001362846A663F8BD65B9806801F0C8
:1047D00047FDA368226C13446268A3609342F0D340
:1047E0002368A360EDE7C06801F03AFD226CE3683E
:1047F00051429B1A2268E36093423EBF63685B1894
:10480000E360022D01D116B1013E0025D9E73546FE
:10481000D7E703461A6C084610B462B1DC685968E1
:1048200014448C4228BF1968DC6028BFD960D9685D
:1048300010BC01F015BD10BC704770B5044601F006
:1048400081F994F8455004F124066DB2002D14DC72
:10485000FF2384F8453001F097F901F073F994F8DB
:10486000445004F110066DB2002D12DCFF2384F8D1
:104870004430BDE8704001F087B9636A002BE7D08F
:10488000304600F041FE08B100F0C6FE013D6DB2B9
:10489000DCE72369002BE9D0304600F035FE08B193
:1048A00000F0BAFE013D6DB2DEE7000038B50D46FE
:1048B000044640B94FF0500383F31188BFF36F8F64
:1048C000BFF34F8FFEE701F03DF9D4E90F314B43C1
:1048D0002268D0185B1A13446060E3600020FF2355
:1048E000A063A26084F8443084F8453095B9236908
:1048F00063B104F1100000F007FE38B14FF08052B0
:10490000094B1A60BFF34F8FBFF36F8F01F03CF973
:10491000012038BD04F11000FFF7FAFE04F1240075
:10492000FFF7F6FEF2E700BF04ED00E037B50D46F5
:104930001C4640B94FF0500383F31188BFF36F8FCB
:10494000BFF34F8FFEE743B94FF0500383F3118855
:10495000BFF36F8FBFF34F8FFEE74AB191B94FF0AE
:10496000500383F31188BFF36F8FBFF34F8FFEE7C0
:1049700041B14FF0500383F31188BFF36F8FBFF342
:104980004F8FFEE750230193019B502B08D04FF02F
:10499000500383F31188BFF36F8FBFF34F8FFEE790
:1049A0000121002D08BF2246C4E90F0584F84610F6
:1049B00020462260FFF77AFF20469DF8183084F8E1
:1049C0004C3003B030BD00002DE9FF4788461F463C
:1049D0000446019240B94FF0500383F31188BFF3AE
:1049E0006F8FBFF34F8FFEE751B9036C43B14FF0A8
:1049F000500383F31188BFF36F8FBFF34F8FFEE730
:104A0000022F0BD1E36B012B08D04FF0500383F33F
:104A10001188BFF36F8FBFF34F8FFEE700F002FEE8
:104A2000064650B9019B4BB14FF0500383F31188F8
:104A3000BFF36F8FBFF34F8FFEE700264FF00009E3
:104A4000DFF8E4A037E0019D1DB901F09DF80020DA
:104A500050E016B902A800F097FD01F095F800F0BB
:104A6000A7FB01F06FF894F84430FF2B08BF84F8DF
:104A7000449094F84530FF2B08BF84F8459001F02E
:104A800083F801A902A800F08BFD002846D101F0AF
:104A900059F8A26BE36B9A422FD101F075F8019996
:104AA00004F1100000F0F6FC2046FFF7C6FE00F00F
:104AB0001DFC50B3012601F045F8A26BE36B9A424E
:104AC00001D3022FBFD13A4641462046FFF76CFE84
:104AD000636A1BB104F1240000F016FD38B14FF0F9
:104AE0008052114B1A60BFF34F8FBFF36F8F01F0ED
:104AF0004BF8012004B0BDE8F08701F045F82046EE
:104B0000FFF79BFE00F0F2FBD4E74FF08053CAF8AA
:104B10000030BFF34F8FBFF36F8FCBE72046FFF717
:104B20008CFE00F0E3FB92E704ED00E02DE9F84392
:104B3000894690461F46044640B94FF0500383F320
:104B40001188BFF36F8FBFF34F8FFEE751B9036C2E
:104B500043B14FF0500383F31188BFF36F8FBFF35E
:104B60004F8FFEE7022F0BD1E36B012B08D04FF0E4
:104B7000500383F31188BFF36F8FBFF34F8FFEE7AE
:104B800001F0C0F8EFF311864FF0500383F3118862
:104B9000BFF36F8FBFF34F8FA26BE36B9A4201D3CA
:104BA000022F22D194F845503A46494620466DB22C
:104BB000FFF7FAFD6B1C13D1636A0BB901200BE000
:104BC00004F1240000F0A0FC0028F7D0B8F1000F99
:104BD000F4D00120C8F8000086F31188BDE8F883FE
:104BE00001356DB284F84550E8E70020F4E7000095
:104BF0002DE9F04385B00F460446019240B94FF0CD
:104C0000500383F31188BFF36F8FBFF34F8FFEE71D
:104C100051B9036C43B14FF0500383F31188BFF3D4
:104C20006F8FBFF34F8FFEE700F0FCFC064650B9D4
:104C3000019B4BB14FF0500383F31188BFF36F8F8B
:104C4000BFF34F8FFEE700264FF00008DFF8DC903F
:104C50003BE0019D1DB900F097FF002052E016B91E
:104C600002A800F091FC00F08FFF00F0A1FA00F024
:104C700069FF94F84430FF2B08BF84F8448094F80F
:104C80004530FF2B08BF84F8458000F07DFF01A967
:104C900002A800F085FC00283DD12046FFF779FDF1
:104CA00098B3019904F1240000F0F4FB2046FFF7CB
:104CB000C4FD00F01BFB38B94FF08053C9F8003039
:104CC000BFF34F8FBFF36F8F012600F03BFFA56B43
:104CD000002DBED039462046013DFFF79AFDA56361
:104CE000236963B104F1100000F00EFC38B14FF0FD
:104CF00080520E4B1A60BFF34F8FBFF36F8F00F0DF
:104D000043FF012005B0BDE8F0832046FFF795FD85
:104D100000F0ECFAD8E72046FFF78FFD00F0E6FA46
:104D20002046FFF736FD0028CED096E704ED00E0E0
:104D3000002330B5064A52F8335002EBC3041DB9C4
:104D400042F83310606030BD0133082BF3D1FAE72D
:104D50007C21002070B504460D46164600F0F2FE98
:104D600094F84430FF2B04BF002384F8443094F8B7
:104D70004530FF2B04BF002384F8453000F004FFCA
:104D8000A36B2BB93246294604F1240000F09CFBAA
:104D90002046BDE87040FFF750BD00002DE9F0410E
:104DA000044600F0CFFE2F4B2F4D1A682F4F0132D3
:104DB0001A602E68002E49D12C601B68012B1FD170
:104DC000B84640460136FFF7A3FC382E08F1140818
:104DD000F7D1DFF8C480264E4046FFF799FC3046F5
:104DE000FFF796FC2348FFF793FC2348FFF790FC5E
:104DF0002248FFF78DFC224BC3F80080214B1E6038
:104E00001420214A136801331360204A6364116837
:104E1000E36A8B4200FB037004F1040188BF136056
:104E2000FFF784FC00F0B0FE194B1B6863B12B68E0
:104E3000DA6AE36A9A4207D24FF08052154B1A6041
:104E4000BFF34F8FBFF36F8FBDE8F081104B1B682E
:104E5000002BD5D12B68DA6AE36A9A4298BF2C609E
:104E6000CEE700BF4C0D0020E0080020EC08002039
:104E7000780D0020940D0020C00D0020AC0D002006
:104E8000E4080020E80800205C0D0020600D0020F0
:104E9000A80D002004ED00E0640D0020064A136810
:104EA0001968064B19B94FF0FF321A607047126843
:104EB000D268D2685268F8E7E40800208C0D002020
:104EC0002DE9F0470D46DDE909844FEA82094A469B
:104ED0000646A521206B1F4601F0D0F9226BA9F1EF
:104EE000040991446B1E29F0070904F134020F35BF
:104EF00013F8011F02F8011B197809B1AB42F7D171
:104F0000089D4FF0000A372D28BF3725201DC4E922
:104F1000135AE56284F843A0FFF705FCC5F1380594
:104F200004F11800FFF7FFFBC4F854A03A463146DD
:104F300048462461A561646284F858A000F0DEFD53
:104F40002060B8F1000F01D0C8F80040BDE8F0873C
:104F500010B590F8593004463BB9006B00F0AEFF35
:104F60002046BDE8104000F0A9BF012BF9D0022B6C
:104F700008D04FF0500383F31188BFF36F8FBFF356
:104F80004F8FFEE710BD000080B5DFF85C80124F48
:104F9000124C134D236863B9124B1B68012BF8D9CF
:104FA0004FF08053C8F80030BFF34F8FBFF36F8FBF
:104FB000EEE700F0C7FDFB68DE68301DFFF7D9FBA8
:104FC0002B68013B2B602368013B236000F0DCFD74
:104FD0003046FFF7BDFFDDE7C00D0020500D00207B
:104FE0004C0D0020EC08002004ED00E0F8B505466B
:104FF000154B164E1C6830680F460430FFF7B9FB9E
:105000006B1C334607D137B1316811480431BDE814
:10501000F840FFF78BBB1A686419546007D30D4A38
:1050200010681968BDE8F8400431FFF78BBB0A4AE5
:10503000106819680431FFF785FB084B1A68A24213
:1050400088BF1C60F8BD00BFD40D0020E008002020
:10505000AC0D0020E8080020E40800208C0D0020A2
:1050600070B586B0DDE90B5445B94FF0500383F3BA
:105070001188BFF36F8FBFF34F8FFEE744B94FF036
:10508000500383F31188BFF36F8FBFF34F8FFEE799
:105090005C260496049E5C2E08D04FF0500383F3E8
:1050A0001188BFF36F8FBFF34F8FFEE72563022593
:1050B00084F8595005AD01950A9D02940095FFF7BB
:1050C000FFFE2046FFF76AFE059806B070BD2DE989
:1050D000F043074685B0900088461646994600F092
:1050E00063FE0546E8B15C2000F05EFE0446A8B110
:1050F000002380F859300D9B056301930C9B3246C9
:1051000041460290009338464B46FFF7D9FE2046B1
:10511000FFF744FE012005B0BDE8F083284600F00B
:10512000CDFE4FF0FF30F6E710B5002488B007AA97
:1051300006A905A8CDE90544FFF7D2FA059B079A11
:105140000293069B1549CDE9004315482346FFF716
:1051500087FFA8B100F00AFB012813D14FF05003DC
:1051600083F31188BFF36F8FBFF34F8F4FF0FF3280
:105170000C4B1A600C4B18600C4B1C6000F06AFD65
:1051800008B010BD0130FBD14FF0500383F31188FC
:10519000BFF36F8FBFF34F8FFEE700BF71A0000812
:1051A000894F00088C0D0020A80D0020D40D002090
:1051B000024A136801331360704700BF580D002086
:1051C000014B1868704700BFD40D00202DE9F84F3F
:1051D0003B4B1B68002B6DD13A4B1D6801351D60A0
:1051E000BDB9394B1A68126842B14FF0500383F3CE
:1051F0001188BFF36F8FBFF34F8FFEE7334A1968F3
:10520000106818601160324A136801331360FFF7A9
:1052100045FE304E002433682F4FAB4210D92F4B40
:105220001B68DA6A14235343FB58022B28BF01245E
:105230002B4B1B68002B0CBF20460120BDE8F88FCC
:10524000DFF88490DFF8A0A0D9F800301B681BB904
:105250004FF0FF333360E2E7D9F80030DB68D3F872
:105260000CB0DBF80420954201D23260D7E70BF195
:1052700004084046FFF77DFADBF828201AB10BF14D
:105280001800FFF776FA1423DBF82C00DAF8002078
:105290004146904288BFCAF8000003FB0070FFF748
:1052A00045FA0E4BDBF82C201968CB6A9A4228BFCE
:1052B0000124C9E70B4A0024136801331360B7E7E0
:1052C000580D0020D40D0020E4080020E80800203C
:1052D000900D00208C0D0020EC080020E00800203C
:1052E000D80D0020540D0020600D00202DE9F04164
:1052F0002F4C236843B94FF0500383F31188BFF359
:105300006F8FBFF34F8FFEE700F01CFC2368013B5B
:10531000236024682CB1002400F036FC2046BDE850
:10532000F081244B1B68002BF5D0234D234EDFF872
:10533000A0801DE0EB68DC68271D04F11800FFF772
:1053400018FA3846FFF715FA1420E36A326800FBB2
:1053500003809342394688BF3360FFF7E7F9184B63
:10536000E26A1B68DB6A9A4202D30122154B1A607B
:105370002B68002BDED10CB1FFF790FD124D2C688D
:1053800044B101270F4EFFF721FF00B13760013C08
:10539000F9D12C600B4B1B68002BBCD04FF0805216
:1053A0000A4B1A60BFF34F8FBFF36F8F0124B3E72F
:1053B000580D00204C0D0020940D0020600D0020A1
:1053C000E0080020D80D0020540D002004ED00E07E
:1053D000EC08002008B540B94FF080520D4B1A6020
:1053E000BFF34F8FBFF36F8F08BD0B4B196841B1EF
:1053F0004FF0500383F31188BFF36F8FBFF34F8FCC
:10540000FEE7FFF7D5FEFFF7F1FDFFF76FFF00287E
:10541000E2D0E9E704ED00E0580D0020184BF0B5AC
:105420001A68184B12B101221A60F0BD1A60164AB0
:1054300014271646154D2B6807FB03F154585018D6
:1054400094B14468083164680A44944208BF6268B1
:10545000446008BF4260142202FB03625268D168B4
:105460000B4A11602B60E0E743B94FF0500383F320
:105470001188BFF36F8FBFF34F8FFEE7013BDBE770
:10548000580D0020D80D0020EC080020600D0020F1
:10549000E008002010B50C4640B94FF0500383F3EC
:1054A0001188BFF36F8FBFF34F8FFEE7054B19686D
:1054B0001831FFF747F92046BDE810400121FFF7FA
:1054C00095BD00BFE008002038B50D46144640B930
:1054D0004FF0500383F31188BFF36F8FBFF34F8FEB
:1054E000FEE7084B19681831FFF720F9002C214618
:1054F00008BF2846BDE8384018BF4FF0FF30FFF71F
:1055000075BD00BFE008002038B5C368DC6844B949
:105510004FF0500383F31188BFF36F8FBFF34F8FAA
:10552000FEE704F118052846FFF723F9104B1B6826
:10553000DBB9251D2846FFF71CF90E4A1420116817
:10554000E36A8B42294688BF13600B4A00FB0320A5
:10555000FFF7ECF8094BE26A1B68DB6A9A4285BFE9
:105560000120074B0020186038BD29460548EFE7A9
:10557000580D0020600D0020EC080020E0080020FD
:10558000D80D0020940D0020034B1B680360034BD3
:105590001B684360704700BF900D0020D40D0020B1
:1055A00070B50C46054640B94FF0500383F311889F
:1055B000BFF36F8FBFF34F8FFEE741B94FF050033A
:1055C00083F31188BFF36F8FBFF34F8FFEE700F0B7
:1055D000B9FA0F4B196823685A1C10D00D482E6871
:1055E00000686A68864201D08A420FD9881A8342CD
:1055F0000AD95B1A134428462360FFF7C5FF00242D
:1056000000F0C2FA204670BD002323600124F7E7B2
:10561000D40D0020900D00200122014B1A6070472C
:10562000D80D0020054B1B6833B1054B1B68002BC0
:105630000CBF02200020704701207047A80D0020F9
:10564000580D002038B508B9002038BD1B4B1C6828
:10565000844208D04FF0500383F31188BFF36F8F5B
:10566000BFF34F8FFEE7236D43B94FF0500383F331
:105670001188BFF36F8FBFF34F8FFEE7E16AE26CD3
:10568000013B91422365DFD0002BDDD1251D28464B
:10569000FFF76FF81420E36CC3F13802A261084AE7
:1056A000E36211688B4288BF1360064A294600FBFB
:1056B0000320FFF73BF80120C7E700BFE008002008
:1056C000600D0020EC080020F7B5114C00F03AFA0C
:1056D0002568BDB90F4F104E3846FFF719F8304610
:1056E000FFF716F80D4B10211F600D4B0A201E60AE
:1056F0000C4A0D4B0095FFF719F9206010B10B49CA
:10570000FFF716FB03B0BDE8F04000F03DBA00BF64
:10571000000F0020840E0020980E0020DC0D0020D9
:10572000E00D0020E40D0020B00E002076A000085F
:10573000914208B5416000610AD8D21A83699A4241
:105740000DD2084B011D1868FEF7FCFF002008BDB4
:105750009A4201D2994202D2034B011DF3E7012084
:10576000F5E700BFE00D0020DC0D002010B588B08B
:10577000FFF7AAFF124B1B68B3B1002407AA06A9C2
:1057800005A8CDE90544FEF7B7FF059B079A0293EC
:10579000069B0C49019302230B4800932346FFF715
:1057A0005FFC0A4B186040B94FF0500383F3118837
:1057B000BFF36F8FBFF34F8FFEE7012008B010BD1E
:1057C000000F00207BA00008A5580008040F00204F
:1057D0007FB5164604461A4640B94FF0500383F38E
:1057E0001188BFF36F8FBFF34F8FFEE70D4D286811
:1057F00080B10529CDE9001602940DDCFFF712FFF8
:105800000023022818BF1A46694608BF089A28686C
:10581000FFF7DAF804B070BD00236946FFF786F998
:10582000F8E700BF000F00202DE9F3414FF000081A
:105830001A4D2B681A6832B9194A11681360296029
:1058400002B0BDE8F081DB68DC681E68271D3846C1
:10585000FEF78FFF636A20469847E369012BE8D182
:10586000A36933449E4206D23946286863602461A6
:10587000FEF768FFDDE70023324619462046CDF8E3
:105880000080FFF7A5FF0028D3D14FF0500383F32A
:105890001188BFF36F8FBFF34F8FFEE7DC0D002041
:1058A000E00D00202DE9F04F774EDFF8EC91B04687
:1058B00087B03368D3F800B0BBF1000F48D0DB6885
:1058C000D3F800A0FFF774FCFFF77AFC6F4D044695
:1058D0002B682F4698423DD2FFF7A6FF2C60FFF7BA
:1058E00005FD4FF0000BDFF8ACA10022DAF8000054
:1058F00002A9FFF77DF90028DBD0029B0498002B5A
:1059000072DB049C6369002B76D1FFF759FC3B687E
:105910000546984201D2FFF787FF029B3D60092BA5
:10592000E3D801A252F823F0015A0008015A0008F6
:10593000015A0008EB5800084F5A0008755A000831
:10594000015A0008015A0008EB5800084F5A000895
:10595000DA46B7E72860BBF1000F2AD0824541D86C
:10596000FFF7C4FCD8F80030DB68DD68281DFEF7BF
:1059700000FFEB69012B18D1A9695346224628463E
:105980005144FFF7D5FE80B1002352461946284600
:105990000093FFF71DFF40B94FF0500383F31188C8
:1059A000BFF36F8FBFF34F8FFEE728466B6A9847B0
:1059B00097E7374B1B681A68B2FA82F25209354BE7
:1059C000AAEB04011868FFF7C5F9FFF78FFC002860
:1059D00087D14FF08053C9F80030BFF34F8FBFF32A
:1059E0006F8F7EE70022EAE7039B05999847029BA9
:1059F000002BFFF67AAF84E7201DFEF7BAFE84E79E
:105A0000A169039B2A4620461944FFF791FE00280E
:105A10003FF46BAF636A20469847E369012B7FF43C
:105A200064AF0023A269039920460A44CDF800B070
:105A30001946FFF7CDFE00287FF457AF4FF0500313
:105A400083F31188BFF36F8FBFF34F8FFEE7039986
:105A5000A16141B94FF0500383F31188BFF36F8FF9
:105A6000BFF34F8FFEE72B462A4620462944FFF717
:105A70005FFE3AE794F82C30002B7FF436AF2046D7
:105A800000F01CFA31E700BFDC0D0020AC0E002056
:105A9000E00D0020000F002004ED00E00648006843
:105AA000006880F3088862B661B6BFF34F8FBFF31A
:105AB0006F8F00DF00BF000008ED00E0002382B020
:105AC00001930D4B1B68013308D04FF0500383F353
:105AD0001188BFF36F8FBFF34F8FFEE74FF0500376
